:020000040000FA
:100000000004002081010000450C0000250C0000C8
:1000100000000000000000000000000000000000E0
:10002000000000000000000000000000470E00007B
:100030000000000000000000410E00002D12000032
:10004000951600003D16000099160000430E0000B2
:10005000450E0000D5070000B90A0000BB0A0000E9
:10006000BD0A0000BF0A0000C10A0000CB0A000060
:10007000D1080000D7070000490E0000C52D000080
:10008000E91400001515000039150000DF06000016
:10009000E1060000E3060000E5060000470C000052
:1000A0004B0C00004D0C00004F0C0000490C0000F0
:1000B000C30A0000C50A0000C70A0000C90A000000
:1000C00000F002F800F030F80CA030C8083824180E
:1000D0002D18A246671EAB4654465D46AC4201D180
:1000E00000F022F87E460F3E0FCCB6460126334282
:1000F00000D0FB1AA246AB46334318475C530000BE
:100100008C5300000023002400250026103A01D360
:1001100078C1FBD8520700D330C100D50B607047BF
:100120001FB51FBD10B510BD00F04FFA1146FFF707
:10013000F7FF02F099FB00F067FA03B4FFF7F2FF54
:1001400003BC00F031FA000070B505460C461646B7
:1001500002E00FCC0FC5103E102EFAD2082E02D3AB
:1001600003CC03C5083E042E07D301CC01C5361FBE
:1001700003E021782970641C6D1C761EF9D270BDD5
:100180001448006801461448884213D11348006897
:10019000400F401E124901430A46124812490160AD
:1001A000124802601249EFF30880401880F3088873
:1001B000104800471048804710480047FEE7FEE718
:1001C000FEE7FEE7FEE7FEE70D480E490E4A0F4B3D
:1001D0007047000000280240018C1258148008402B
:1001E000FFFFFF5A5C1008409A65FA05141008409A
:1001F000000400003529000065130000C100000064
:100200000000002000040020000100200001002068
:10021000FEB5054610460C46184373D0AE468C46D4
:100220000020AD1A01469C4167D366460027012491
:100230003D46B61A9D4102D313463A4621246546EF
:1002400076462F04360C3E432D0CB61A9D4104D33E
:10025000150C1B042B4312041034654676462F06FA
:10026000360A3E432D0AB61A9D4104D3150E1B02D1
:100270002B4312020834654676462F0736093E4363
:100280002D09B61A9D4104D3150F1B012B431201F2
:10029000241D65467646AF07B6083E43AD08B61A3C
:1002A0009D4104D3950F9B002B439200A41C6546EF
:1002B0007646EF0776083E436D08B61A9D411AD37D
:1002C00092185B41641C16E0001876466546494169
:1002D000B71A9D410191009009D36046B11A984127
:1002E0008E468446009801990025401C6941DD072F
:1002F00052082A435B08641EE6D57246634603B083
:10030000F0BDFFE700200146C046C0462A4623460E
:10031000F5E700000EB5044615460E4612A000F0A3
:1003200032F9204600F02FF915A000F02CF93046E4
:1003300000F029F914A000F026F96C460020E072C4
:100340000A20A0720A3407E00A21284600F06BF860
:1003500030310546641E2170002DF5DC204600F08A
:1003600012F900F006F900002A2A2A206173736549
:100370007274696F6E206661696C65643A20000072
:100380002C2066696C6520002C206C696E6520004D
:10039000F8B5042A2CD3830712D00B78491C0370BC
:1003A000401C521E83070BD00B78491C0370401C65
:1003B000521E830704D00B78491C0370401C521E48
:1003C0008B079B0F05D0C91ADF002023DE1B08C94D
:1003D0000AE0FFF7B9FEF8BD1D4608C9FD401C46FE
:1003E000B4402C4310C0121F042AF5D2F308C91AD6
:1003F000521EF0D40B78491C0370401C521EEAD4E4
:100400000B78491C0370401C012AE4D40978017060
:10041000F8BD002203098B422CD3030A8B4211D36F
:1004200000239C464EE003460B433CD40022430885
:100430008B4231D303098B421CD3030A8B4201D375
:1004400094463FE0C3098B4201D3CB01C01A52410D
:1004500083098B4201D38B01C01A524143098B425D
:1004600001D34B01C01A524103098B4201D30B0146
:10047000C01A5241C3088B4201D3CB00C01A52416B
:1004800083088B4201D38B00C01A524143088B4230
:1004900001D34B00C01A5241411A00D201465241C9
:1004A000104670475DE0CA0F00D04942031000D3E8
:1004B0004042534000229C4603098B422DD3030A3D
:1004C0008B4212D3FC22890112BA030A8B420CD34D
:1004D000890192118B4208D3890192118B4204D376
:1004E00089013AD0921100E08909C3098B4201D3F6
:1004F000CB01C01A524183098B4201D38B01C01A30
:10050000524143098B4201D34B01C01A52410309A6
:100510008B4201D30B01C01A5241C3088B4201D355
:10052000CB00C01A524183088B4201D38B00C01A02
:100530005241D9D243088B4201D34B00C01A5241D9
:10054000411A00D20146634652415B10104601D366
:100550004042002B00D54942704763465B1000D3F0
:10056000404201B50020C046C04602BD70477047FA
:10057000704710B5002000F01DF8FFF7D3FD0120F3
:1005800000F012F810BD10B5044602E0641C00F043
:1005900004F820780028F9D110BD08B56946087024
:1005A0000320ABBE08BD000001491820ABBEFEE72A
:1005B0002600020010B500F035F800F02DF810BD4F
:1005C000004870476418002070477546FFF7F8FF31
:1005D000AE46050069465346C008C000854618B0BF
:1005E00020B5FFF7F1FD60BC00274908B64600269C
:1005F000C0C5C0C5C0C5C0C5C0C5C0C5C0C5C0C5D3
:10060000403D49008D46704710B50446C046C0467F
:100610002046FFF792FD10BD10B5002801D0FFF76E
:10062000C3FF10BD10B5002102A000F013F8012097
:1006300010BD0000534947414252543A2041626E76
:100640006F726D616C207465726D696E6174696F33
:100650006E00000070B505460C460A2000E06D1CD7
:10066000FFF79BFF002D06D028780028F7D102E085
:10067000641CFFF792FF002C02D020780028F7D1ED
:100680000A20FFF78AFF70BD70B58C180578401CF2
:100690006B075B0F01D10378401C2A1106D1027849
:1006A000401C03E00678401C0E70491C5B1EF9D10B
:1006B0002B0705D40023521E0DD40B70491CFAE7FA
:1006C0000378401CCB1A921C03E01D780D70491C66
:1006D0005B1C521EF9D5A142D8D3002070BD7047D3
:1006E00070477047704710B50321162000F0EEF9EF
:1006F0000321172000F0EAF90221172000F036FA52
:10070000242000F01FFA232000F01CFA262000F01D
:1007100019FA1F2000F016FA242000F063FA2320B3
:1007200000F060FA262000F05DFA10BD3EB50446E8
:100730000D460820002201901346009202900322E9
:100740002946204600F0CAFFA0001F490858806BC8
:10075000102188431030A1001B4A51588863A00023
:1007600011460858806B0121890288434018A10076
:10077000515888631548A10051584864A00011469B
:100780000858006BFF21013188434018A1005158DF
:100790000863A00011460858006B012149028843F4
:1007A0004018A10051580863A00011460858006B7A
:1007B00040084000401CA10051580863082004492B
:1007C0000874202088743EBD40090020FFFF00000F
:1007D000DC0A00207047704700B50E480C49C16024
:1007E000FF313D31016100218171094902209839B1
:1007F000087007480321183841700649FD22891CFA
:100800000878400840001040087002F0DDF900BD93
:10081000580E0020A00A0020F8B52A482A4E846805
:10082000022020703078671CC01C60708D20A07082
:100830007078E070241D32782146706802F0E6F886
:100840003078C01CC1B2384602F01AFA024630783D
:1008500000238446716825461846552610E00F5C33
:10086000552F03D0022F01D0032F04D1EE545B1C6F
:100870000F5C9BB25537EF545B1C401C9BB280B29F
:100880006045ECD3E918032A16D0022A14D0552A61
:1008900012D00A70491C032008700A48491C80685D
:1008A000091A8AB2094900F073F80749FD2216397E
:1008B000087810400870F8BD0E7055324A70891CD7
:1008C000E9E70000440E0020B80A002000000940BB
:1008D00010B50648C068C007C00F002804D001202A
:1008E0000249C86000F0B2FA10BD0000C0600840C4
:1008F000002014E000214201234B99504201D218FC
:1009000051604201D21811614201D2185161420175
:10091000D21891604201D2189161411CC8B20628D8
:10092000E8DB1949194A51600021184AC032516167
:1009300011611649096A0122D20591438918134AA7
:1009400011621146096A1F2212029143012292028A
:1009500089180E4A116200210C4AC032D1600B493D
:10096000096A0122120791438918084A1162114647
:10097000096A49084900491C116211460968490879
:100980004900491C11607047000D002000600840BC
:1009900030B501239B029A4239DDD31A404C2380A3
:1009A00001239B023F4C23803F4B186059609B689A
:1009B000DB08DB005B1C3C4CA36023469B683B4C84
:1009C0002340E4431B19384CA36023469B680F2443
:1009D000A403A3430524A4031B19334CA36023469B
:1009E0009B680324A406A3432F4CA36023469B6863
:1009F00003242407A3432C4CA36023469B689B003D
:100A00009B080324A4071B19274CA36039E000238B
:100A1000234C2380234C2380234B186059609B6810
:100A2000DB08DB005B1C204CA36023469B681F4C4B
:100A30002340541E24011D4DED432C4023431A4CEA
:100A4000A36023469B680F24A403A3430524A403A7
:100A50001B19154CA36023469B680324A406A343DB
:100A6000114CA36023469B6803242407A3430E4C28
:100A7000A36023469B689B009B08AC061B190A4C8D
:100A8000A3600B4B1B6A5B085B005B1C084C23627A
:100A9000084B9B680224A3439B1C064CA36030BDFB
:100AA0003A0900203C090020000D00200FC0FFFF84
:100AB0000060084040200940704770477047704709
:100AC000704770477047704770477047FEB50446DF
:100AD0000E46012080070190204602F0ADF80190FB
:100AE000019D20110001201A8000451901F059F8DC
:100AF000009072B600BF0E4880681121084000289F
:100B0000F9D10C490C4801600C480B490860286871
:100B1000C708FF0038463043286009480860044889
:100B2000806803498860009801F044F8FEBD000029
:100B3000002002409A65FA0500080840CCCCFA056E
:100B400001005FA010B503460124A407184602F077
:100B500073F80446A0200059191109015A1A0121FD
:100B600091400843A021085110BD0000FEB5044685
:100B70000E46012080070190204602F05DF80190AA
:100B8000019D20110001201A8000451901F009F88B
:100B9000009072B600BF0E488068112108400028FE
:100BA000F9D10C490C4801600C480B490860C02180
:100BB0002F688F43B0013843286009480649086010
:100BC0000348806802498860009800F0F3FFFEBD8A
:100BD000002002409A65FA0500080840CCCCFA05CE
:100BE00001005FA010B503460124A407184602F0D7
:100BF00023F8044618110001191A01208840942195
:100C0000085110BD10B503460124A407184602F090
:100C100013F8044618110001191A01208840982180
:100C2000085110BD00BFFEE710B501F00BFF01F049
:100C3000F9FE00F05BFEFFF7CFFD02F07DF802F059
:100C400038F810BD7047704770477047704770475D
:100C500070B504460D46230000F03AFF06040D1659
:100C60001F28313A01210020FFF730FF01210846FB
:100C7000FFF72CFF2DE001210220FFF727FF0121C4
:100C80000320FFF723FF24E001210420FFF71EFFCC
:100C900001210520FFF71AFF1BE001210620FFF7C5
:100CA00015FF01210720FFF711FF12E001210820A5
:100CB000FFF70CFF01210920FFF708FF09E00121E0
:100CC0000A20FFF703FF01210B20FFF7FFFE00E0E2
:100CD00000BF00BF00F062FF064672B600BF4E487C
:100CE0008068112108400028F9D14C484C4908601F
:100CF0004C4808604C480069000A00024A490861F3
:100D00004A484749086044488068434988603046FB
:100D100000F04AFF4648058001460888C10F0918BF
:100D20004910434A51806420114688800846008853
:100D3000A100404A515848613F48A10051580860FD
:100D40000520A1005158C8619020A1005158C862E7
:100D50000B20A1005158C86335488088A100515824
:100D6000486433488088A100515808640020A100DD
:100D70005158886700F012FF064672B600BF264839
:100D80008068112108400028F9D1244824490860CE
:100D9000244808608815A100264A515888640A2012
:100DA000A100515808650420A100515848651F480A
:100DB0001B4908601848806817498860304600F071
:100DC000F3FE1E48A1001B4A51584866FF2002301E
:100DD000A1005158886600F0E1FE064672B600BFD9
:100DE0000D488068112108400028F9D10B480C49B2
:100DF00008600C4808600C480069FF2108430A4954
:100E000008610A480649086003488068024988600A
:100E1000304600F0C9FE70BD002002409A65FA0518
:100E200000080840CCCCFA050000084001005FA093
:100E300058090020540A00200AA00000090A0000F6
:100E400070477047704770477047000010B5554AAB
:100E50001288002A09D1544A926802239A43524BBD
:100E60009A600022514B1A7010BD514A10685168A7
:100E70004C4A128801239B029A4243DD4D4A128854
:100E800082184B4B1A601A4651609268D208D20001
:100E9000521C9A601A469268474B1A40DB43D2189C
:100EA000434B9A601A4692680F239B039A4305238B
:100EB0009B03D2183E4B9A601A46926803239B0606
:100EC0009A433B4B9A601A46926803231B079A4346
:100ED000374B9A601A4692689200920803239B0748
:100EE000D218334B9A602F4A128801239B02D21AE0
:100EF0002C4B1A802F4A128801239B02D2182D4BAB
:100F00001A803EE02B4A12888218294B1A601A4632
:100F100051609268D208D200521C9A601A469268B8
:100F2000254B1A401F4B1B885B1E1B01224CE443C0
:100F300023401A431E4B9A601A4692680F239B0364
:100F40009A4305239B03D218194B9A601A4692685C
:100F500003239B069A43164B9A601A469268032312
:100F60001B079A43124B9A601A46926892009208A5
:100F7000A306D2180E4B9A6000220A4B1A800D4B22
:100F80001A800E4A126A52085200521C0B4B1A6207
:100F9000054A926802239A43921C034B9A6000BF51
:100FA00062E700003A09002040200940A40A00201E
:100FB000000D00203C0900200FC0FFFF006008402A
:100FC00070B5044600250F2C05DC0F2903DC0F2A21
:100FD00001DCFF2B01D9012070BD1002C0182604CE
:100FE00080190E0685190548054EF0610448403801
:100FF000C5600120F0610020EEE700009A65FA0567
:1010000040100840F0B505460C4616461F46032D15
:1010100005DC012C03DC0F2E01DC032F01DD012098
:10102000F0BD002D06D0012D20D0022D72D0032D51
:101030001BD1D3E001F0ACFD00BF74488068C0064E
:10104000C00F0028F9D0714883689B089B0000BF3F
:101050006F486E494031C8616C48836000BF6B487F
:101060008068C006C00F0028F9D0CBE001F042FD37
:1010700066480368402003433021184688430346EE
:10108000644800686449884201D20120C8E7614889
:1010900000686249884219D35E4800684900884266
:1010A00002D21020034311E05A4800685C4988428C
:1010B00002D22020034309E056480068594988427B
:1010C00002D23020034301E00120A9E750484F49F4
:1010D0004031C8614D48036001F02EFD00BF4B4810
:1010E0008068C006C00F0028F9D0484883689B0874
:1010F0009B0001200343464844494031C8614348AE
:10110000836000BF41488068C006C00F0028F9D046
:1011100078E0FFE7002C02D101F03AFD37E001F062
:10112000E9FC3A48036840200343302118468843CD
:101130000346384800683849884201D201206FE7E9
:10114000344800683549884219D33248006849005C
:10115000884202D21020034311E02E480068304933
:10116000884202D22020034309E02A4800682D4922
:10117000884202D23020034301E0012050E7244896
:1011800022494031C8612148036001F0D5FC01F0DB
:10119000C1FC1E484368244803403001B90240188E
:1011A000001903431A4819494031C8611748436080
:1011B00001F0D8FC00BF15488068C006C00F0028A9
:1011C000F9D0124883689B089B0002200343104813
:1011D0000E494031C8610D48836013E000BF0B48E1
:1011E0008068C006C00F0028F9D0084883689B08B3
:1011F0009B0003200343064804494031C86103486B
:10120000836000BF00BF00200AE700000010084014
:101210009A65FA05380A002040420F0000093D0097
:101220000024F4000048E8010EF3FFFF02480068C4
:10123000401C0149086070476C090020F8B5002483
:101240000027002500263D4880688407A40F002C55
:1012500006D0012C08D0022C0AD0032C31D12BE06F
:101260003748384908602CE037483649086028E09C
:1012700032484068C707FF0F304840680006050F36
:101280002E4840680005860F002F0AD1691CB20065
:1012900018322B4B5A431046FFF7BBF82949086018
:1012A00009E0691CB2001832274B5A431046FFF779
:1012B000B0F82449086004E07D200002214908605C
:1012C00000BF00BF1D48C068C4B2611C1D48006853
:1012D000FFF79FF81D490860084600681C498842CE
:1012E00003D902201B49C86002E001201949C860E7
:1012F0001248C0680003040F611C14480068FFF71F
:1013000088F8154908600D48C0680001040F611C89
:101310000E480068FFF77DF8104908600748C0686C
:101320000005040F611C07480068FFF772F80C49BC
:1013300008600648006803490860F8BD00100840CE
:10134000C0E1E4003C0A0020001BB700400A002076
:10135000007E560300800840440A0020480A00200E
:101360004C0A002025482649C86125484038006BB2
:101370000121490388434018214940390863214825
:10138000214908601D481E49C8610020C0431C490E
:101390004039486119481A49C8610020C0431849BA
:1013A0004039886115481649C8610020C043144976
:1013B0004039C86100BFEFF31081084672B600BF24
:1013C00012498968112211400029F9D10B49104AAC
:1013D00011601049116029210F4A51600F490C4AD0
:1013E00011600A498968094A916000BF80F310883A
:1013F00000BF02200A49C860704700009A65FA05DC
:1014000040100840C0E1E4003C0A002000200240F7
:1014100000080840CCCCFA050000084001005FA09D
:101420000080084010B504460020A06005482060F8
:10143000062060600020E0602082204600F004F872
:1014400010BD00005C0B00200168002206E00223B2
:101450008B7000230B80091D531CDAB24368934242
:10146000F5D8704770B5044625681E49E0680968DC
:10147000884200D170BD1B480068E060A068401C35
:10148000A060208A40084000401C208200260EE018
:10149000A878002808D12888002803D02888401E72
:1014A000288001E00120A8702D1D701CC6B2606864
:1014B000B042EDD80A21A068FEF7ABFF00290ED19B
:1014C000208A02218843801C2082A068642806D3D9
:1014D0000020A060208A0C218843001D208200BFCC
:1014E000C8E700006C09002010B509480068806852
:1014F0008007C00F002809D001F04CFC04480068A8
:1015000080680221884302490968886010BD000094
:10151000880A0020002006490868086005494968D3
:10152000896802229143034A526891607047000023
:1015300000C00840880A002070470000F7B584B05A
:10154000044600250027042C02DD012007B0F0BD71
:101550000698012801DD0120F8E720E034490598CC
:10156000096800F09DFA334A002301910090FEF7CC
:101570004FFE039102900120B840024600230190E3
:101580000298FEF745FE0022451E91410E46501E70
:101590000021401BB14100D303E0781CC7B2112FDA
:1015A000DCDB00BF112F01DB0120CFE70020A10011
:1015B000214A51580860A000114608584560A00013
:1015C0000858C06840094001F906C90E0843A10047
:1015D0005158C860A000114608588068042188430B
:1015E00006998900042211400843A100124A51586B
:1015F0008860A00011460858806808218843A1002F
:1016000051588860A000114608588068022188431C
:10161000A10051588860A000114608588068400811
:101620004000401CA1005158886000208EE7000057
:101630004C0A002040420F00880A0020134800682E
:10164000C006C00F002806D010484068102188430B
:1016500010300E4948600D4800688006C00F002811
:1016600006D00A4840682021884320300749486056
:10167000064800684005C00F002806D0044803490A
:1016800048600020014940394860704740200940C7
:10169000FFFF00007047000010B50F480068C0064B
:1016A000C00F002808D001F07DFB0B4840681021D6
:1016B0008843103008494860074800688006C00F1A
:1016C000002808D001F076FB0348406820218843B9
:1016D00020300149486010BD40200940F8B504465B
:1016E0000D4616461F460020A100724A5158486018
:1016F000290171480068FEF78CFEA1006D4A51581F
:10170000486229016C480068FEF783FEC801290180
:10171000401869010090FEF77CFEA100654A51580F
:101720008862002F09D1A00011460858C06A022122
:101730008843A1005158C8622DE0012F15D1A000A7
:101740005C490858C06A04218843001DA100594A19
:101750005158C862A00011460858C06A0221884347
:10176000801CA1005158C86215E0022F13D1A000BF
:1017700050490858C06A04218843A1004D4A515875
:10178000C862A00011460858C06A02218843801C24
:10179000A1005158C862002E0AD1A000454908583E
:1017A000C06A60218843A100424A5158C86226E0BD
:1017B000012E0BD1A0003F490858C06A6021884320
:1017C0002030A1003B4A5158C86218E0022E0BD1CC
:1017D000A00038490858C06A602188434030A10001
:1017E000344A5158C8620AE0A00032490858C06A19
:1017F000602188436030A1002E4A5158C862069883
:1018000000280AD1A0002B490858C06A0821884343
:10181000A100284A5158C8620DE0069801280AD153
:10182000A00024490858C06A082188430830A10054
:10183000204A5158C862079808280DD108980828EE
:101840000AD1A0001B490858C06A10218843A10092
:10185000184A5158C86226E0A00016490858C06AC4
:10186000102188431030A100124A5158C862A000CC
:1018700011460858406BC008C00008994907490F35
:101880000843A10051584863A00011460858406B16
:10189000382188430799C900382211400843A10024
:1018A000044A515848630548A100024A5158486407
:1018B000F8BD0000940A0020440A0020FFFF000049
:1018C00070B50022084D1346D9004C190021665C02
:1018D0008654521C491CC9B2D2B20829F7D35B1CEA
:1018E000DBB2052BF0D370BD6C10002070B5194829
:1018F0008AB0002404704470174D04224560827041
:101900000123C370037206467472F560B272F372FB
:101910000221017474747561B274F3740321017649
:101920007476F561B276F37620214254203044700B
:1019300045608270C370103D6C712C71AC7000F00A
:101940000DF86C616846AC61FFF7BAFFEC700AB045
:1019500070BD00006C100020D00A0020F8B50021F6
:10196000494A4A4D11710846C20052195378002B5A
:1019700008D09278444B511801221C7982402243AE
:10198000C9B21A71401CC0B20528EDD3002978D025
:10199000FF20F530FEF73DFD3C4C00222834274661
:1019A00084461146643F3948CB001E1870780028E1
:1019B00010D00C204843A518C3195D6000255D8038
:1019C0006546AD003D5200201872B0784543A81816
:1019D00082B209E00C230E46A0185E43F3190025DD
:1019E00058605D80BD531D72491CC9B20529DAD308
:1019F0002649274828310A46803206C080320260D4
:101A00000A22027200234372224A42600122827239
:101A1000214C224821606060B520C000A081E38194
:101A200023816381A382E3826383184D2383002192
:101A3000CA0052195678002E10D09278022A04D08B
:101A4000042A05D0012A06D008E0228B921C04E06B
:101A5000228B121D01E0228B521C2283491CC9B229
:101A60000529E5D3218B00290CD0FEF7D2FC0146D5
:101A700005486422C078101A48431146FEF7D3FC8B
:101A8000A082F8BDA382F8BDC00A00206C1000201F
:101A9000440E0020190800001410002094120020A9
:101AA000F8B582B28BB2040C0D0C104658430021DD
:101AB00026465E43370C36048019794116466E433C
:101AC000370C36048019794126466E438919F8BDD2
:101AD00030B47446641E2578641CAB4200D21D46A7
:101AE000635D5B00E31830BC18470000002805DB8D
:101AF000C206D20E01219140014A116070470000D8
:101B000080E200E0002809DB00BF00BFC206D20E61
:101B100001219140024A116000BF00BF70470000E0
:101B200000E100E010B5002819DB1A4A03231B026C
:101B3000D21883089B00D2588307DC0EFF23A340F2
:101B40009A438B071B0E8407E40EA3401A43114BE4
:101B5000032424021B198408A4001A5118E00E4A19
:101B600003071B0F083B9B089B00D2588307DC0E22
:101B7000FF23A3409A438B071B0E8407E40EA34068
:101B80001A43054B0407240F083CA408A4001A516B
:101B900010BD000000E100E01CED00E0EFF310805C
:101BA0007047EFF31080704780F31088704780F320
:101BB0001088704780F310887047000010B500242B
:101BC00006480078012806D10548006880470020B3
:101BD0000249087000E00624204610BD820900205A
:101BE00088090020F0B585B006460D46002001901A
:101BF000288805284ED1707800020390B0780399A8
:101C0000084303900398401C80B20390F0780402CC
:101C100030790443012C3ADB7D200001844236DA1E
:101C2000374600202880012038707F1C2888401CFF
:101C300028806007400F002808D02046E117490F90
:101C40000918C910491CC9B2029106E02046E117E3
:101C5000490F09184905090E0291029838707F1C36
:101C60002888401C2880002322463846039900F02B
:101C700075FC00900098002804D0009801F078F8D6
:101C8000019009E0298802980818288004E00320C0
:101C9000019001E003200190019805B0F0BDF0B57E
:101CA00085B006460D4600200190288805284DD1B4
:101CB000707800020390B07803990843039003986A
:101CC000401C80B20390F078040230790443012C68
:101CD00039DB7D200001844235DA37460020288038
:101CE000022038707F1C2888401C28806007400F25
:101CF000002808D02046E117490F0918C910491CCF
:101D0000C9B2029106E02046E117490F09184905BA
:101D1000090E0291029838707F1C2888401C288088
:101D200022463846039900F063FC00900098002892
:101D300004D0009801F01CF8019009E0298802986D
:101D40000818288004E00320019001E0032001909E
:101D5000019805B0F0BDFEB505460C460020019087
:101D60002088052838D1687800020290A878029966
:101D7000084302900298401C80B20290E878060264
:101D80002E79012E25DB7D2E23DC2F46002020809E
:101D9000032038707F1C2088401C20807006000EB5
:101DA00038707F1C2088401C208000233246384633
:101DB000029900F04BFC00900098002804D0009895
:101DC00000F0D6FF019009E02088710040182080C3
:101DD00004E00320019001E0032001900198FEBD82
:101DE000FEB505460C46002001902088052838D114
:101DF000687800020290A87802990843029002983D
:101E0000401C80B20290E878060228790643012E31
:101E100024DB7D2E22DA2F4600202080042038701B
:101E20007F1C2088401C20807006000E38707F1CAC
:101E30002088401C208032463846029900F0EEFC93
:101E400000900098002804D0009800F091FF0190C5
:101E500009E0208871004018208004E003200190F0
:101E600001E0032001900198FEBDF0B587B0044663
:101E70000D460020029028880A2863DB6078000263
:101E80000690A0780699084306900698401C80B2F8
:101E90000690E078060220790643607900020590FA
:101EA000A0790599084305900598401C80B20590DB
:101EB000E0790702207A0743607A0490012E3FDB25
:101EC0007D2E3DDC012F3BDB792F39DC7900049836
:101ED000814235D101233A4620460A30059900F067
:101EE000B5FB01900198002822D103942880172087
:101EF000039C2070039C601C03902888401C288051
:101F00007006010E039801700398401C0390288806
:101F1000401C2880002332460699039800F096FB67
:101F200001900198002803D128887100401828806A
:101F30000198002806D0019800F01AFF029001E0F5
:101F400003200290029807B0F0BD000070B505466E
:101F50000C46064802880649681CFEF719FA034831
:101F60000088401C2080002070BD00007C090020FB
:101F7000880C0020FEB504460F46002000903888EB
:101F800005282BD160780502A0780543681C85B22E
:101F9000207900281FD1E078FF2802D0E0780028BF
:101FA00019D1002069464871E078FF2802D101204C
:101FB000087102E000206946087101231A4629468B
:101FC00001A800F0CBFA0646002E09D0304600F0FA
:101FD000CFFE009004E00320009001E00320009079
:101FE0000098FEBDF8B504460F46002000903888E2
:101FF000052813D160780502A0780543681C85B2D6
:1020000001231A462946E01C00F020FB0646002E5C
:1020100006D0304600F0ACFE009001E003200090B6
:102020000098F8BDF0B585B005460E460020019039
:10203000308805283EDD68780702A8780743781CB9
:1020400087B2E8780402287904436879039060072E
:10205000400F002808D02046E117490F0918C91081
:10206000491CC9B2029106E02046E117490F091840
:102070004905090E0291012C19DB7B2000018442E5
:1020800015DC03990298884211D101232246394672
:10209000A81D00F063FA00900098002804D0009872
:1020A00000F066FE019007E00520308004E0032088
:1020B000019001E003200190019805B0F0BDFEB54C
:1020C00004460E46002001903088062829DB6078FF
:1020D0000702A0780743781C87B2E07805022079D0
:1020E000054360790290012D18DB782D16DC680617
:1020F000010E0298814211D101232A463946A01DC2
:1021000000F0A4FA00900098002804D0009800F095
:102110002FFE019007E00520308004E003200190AD
:1021200001E0032001900198FEBD0000F8B50546CE
:102130000C4616461F4600200090002C03D0012CB0
:1021400001DBF72C02DD0220009037E01C48047010
:10215000002D20D11B481C4908601C481C49086000
:102160001C481D4908601D481D49086000201D4984
:1021700008601D481D4908601D481E4908601E482A
:102180001E4908603A4631460D480078069B00F02B
:10219000DFF8009002E00220009000BF00BF00982E
:1021A00000280BD102F050FE002802D1032000903D
:1021B00004E0134805700120124908700098F8BD2A
:1021C0008009002019250000880900204125000011
:1021D0008C0900206924000084090020AD23000040
:1021E0009009002094090020CD4E0000980900209D
:1021F000495000009C090020B54F0000A0090020B4
:10220000810900208209002038B500254548007862
:10221000002801D0062038BD684602F003FE0128E0
:102220007DD168460078002806D0012805D0022814
:102230001AD0032872D170E070E03B4A3B493C4819
:102240003C4B1B6898470546002D0CD13848007858
:1022500039490978884203D035480078002802D1EE
:10226000022002F0F9FD59E0304800680078334957
:102270000870012032490870002418E0E00031495C
:10228000085C002800D114E0E0002E49085C2B49CE
:10229000097888420AD1E0002A4940182249426858
:1022A0002248006890472649087002E0641C102C00
:1022B000E4DB00BF1E48007800282CD020480078BE
:1022C000002819D00020184908801C480078802177
:1022D000084315490A880988491C134B198013497A
:1022E0000968885416480278184601880088401CFE
:1022F00018800E480068425413480078012800D125
:1023000000BF09480288094801680B4800780F4B54
:102310001B689847054601E001E000BF00BF0020B0
:1023200079E7000082090020320A00202C0A0020F0
:10233000300A00209009002080090020310A002086
:10234000340A0020AC090020810900208409002003
:10235000F8B50E4614461F46002000900120FFF7F6
:1023600026FC3B4608222146304602F089FD012822
:1023700002D00320009011E04B200002844201D9DA
:10238000232504E061000848FEF743F80546A8B29B
:1023900002F090FD012801D0032000900020FFF7FB
:1023A00006FC0098F8BD0000A07F1700F8B50446B1
:1023B0000D4616460020009000270120FFF7F7FB8E
:1023C00013480088FF2800DC04E09D2211A11BA017
:1023D000FDF7A0FF0E480088042813DB0C48018895
:1023E000204802F0C7FC00280CD11E48007820705D
:1023F00007480088C01E30801A48401C2860012011
:10240000009000E005270020FFF7D1FB3846F8BD1B
:102410007A0900204D4F444255535C467265656D04
:102420006F646275735C6D6F646275735C727475F2
:102430005C6D627274752E630000000075735263E8
:1024400076427566666572506F73203C204D425F20
:102450005345525F5044555F53495A455F4D41586B
:1024600000000000880B0020F8B505460E46174610
:10247000002000900120FFF79AFB224800780128F5
:1024800038D1701E204908600120204908801E486C
:102490000068057008460088C01908800846018851
:1024A0001948006802F066FC0446184A1088421C6D
:1024B000164B1A80164A145421121A461088421CD0
:1024C0001A80134A11540120124908700E490968F4
:1024D000087802F0E1FC0C480068401C0A490860DA
:1024E0000A480088401E094908800121002002F0A6
:1024F0005DFC01E0052000900020FFF758FB0098EC
:10250000F8BD00007109002074090020780900203E
:10251000880B00207009002010B50120FFF747FB51
:102520000020064908700021012002F03FFC02F063
:102530006DFC0020FFF73BFB10BD0000710900207F
:1025400010B50120FFF733FB0021084602F02EFCF6
:1025500002F050FC0020FFF72AFB10BDFFB583B04E
:1025600005460E4600200290059804B230B20028BD
:1025700037DB05983018102833DC304607B2069850
:10258000002802D001282BD115E011E0082C01DD34
:10259000082000E02046C2B2B9B2144802F0BAFDE9
:1025A00028706D1C2046083804B23846083007B23F
:1025B000002CEBDC14E010E02B786D1C082C01DD06
:1025C000082000E02046C2B2B8B201460190074898
:1025D00002F0BAFD2046083804B2002CECDC00BF43
:1025E00001E001200290029807B0F0BD1A09002016
:1025F000FEB505460C4616460020019037B220B2C3
:1026000000281CDBA019102819DC204680B200909D
:1026100012E0082F01DD082000E03846C2B20A4867
:10262000009902F077FD28706D1C3846083807B213
:102630000098083080B20090002FEADC01E0012011
:1026400001900198FEBD00002A090020FCB5074654
:102650000C4615461E4600200190601E84B220B232
:1026600081210901884279DB60196F21090269180B
:10267000884273DC002E02D0012E5ED15EE05AE06B
:102680008120000184420ADB992000012818A04221
:1026900005DB2146384600F097FB019049E0C12058
:1026A000000184420ADBD72000012818A04205DB84
:1026B0002146384600F04CFC01903AE054488442F0
:1026C00009DB54482818A04205DB2146384600F0B3
:1026D000F1FD01902DE03120000284420ADB1F2031
:1026E00040022818A04205DB2146384600F0AAFE29
:1026F00001901EE00120800384420ADB4D2000028D
:102700002818A04205DB2146384600F0E9FF019079
:102710000FE0414884420ADB6F2000022818A042E3
:1027200005DB2146384601F0D9F8019001E001208F
:102730000190681E85B2002DA2DC63E05FE081207D
:10274000000184420BDB992000012818A04206DB1F
:102750002146384601F024FA01904AE053E0C120B6
:10276000000184420ADBD72000012818A04205DBC3
:102770002146384601F0F4FA01903AE024488442B8
:1027800009DB24482818A04205DB2146384601F021
:1027900033FD01902DE03120000284420ADB1F202E
:1027A00040022818A04205DB2146384601F026FEEB
:1027B00001901EE00120800384420ADB4D200002CC
:1027C0002818A04205DB2146384601F0CBFF0190D6
:1027D0000FE0114884420ADB6F2000022818A04253
:1027E00005DB2146384602F009F9019001E001209D
:1027F00001900098401C00B20090681E85B2002D28
:102800009DDC00BF01E0012001900198FCBD0000AB
:1028100010190000302900001050000070B5034668
:1028200000200DB2002D18DB8D18082D15DC0C4D85
:102830002D884D1B2CB20DE065000A4E755B2D12E4
:102840001D705B1C6500755D1D705B1C651C2CB2EA
:10285000551EAAB2002AEFDC00E0012070BD000086
:10286000180900200809002008B5FEF7DDF900204E
:102870004B23DB01022201210090FFF757FCFFF7F9
:102880009DF92948FEF7CEFD4CE02748FEF7EAFD0A
:102890002548007CC007C00F002805D02248008AC8
:1028A00040084000204908821F48007C8007C00F74
:1028B000002807D0FFF7A8FC1B48008A02218843A4
:1028C000194908821848007C0007800F012829D187
:1028D00016480068401C1549086008460068FF213A
:1028E000F53148431249086010480068012806D1B4
:1028F0002320FEF787F92620FEF784F90CE00B4829
:102900000068022808D12320FEF76CF92620FEF784
:1029100069F90020054908600348008A0C218843B2
:1029200001490882B1E70000340B002000080020B4
:1029300008080020002070472D484068FF21013121
:10294000884340182A49486000BF2948406840052C
:10295000C00F0028F9D02648406801218902884329
:102960004018234948600846006840084000401C61
:102970000860084640680904884340181C494860BC
:1029800000BFEFF31081084672B600BF194989688D
:10299000112211400029F9D11749184A116018492C
:1029A00011601849896B49084900491C154A91630F
:1029B0001146896B02229143891C124A9163114688
:1029C000896B1022914310310E4A91631146896B35
:1029D000102291430B4A91630B49084A1160054943
:1029E0008968044A916000BF80F3108800BF704777
:1029F00000400240002002409A65FA0500080840A5
:102A0000CCCCFA050000084001005FA010B50023FF
:102A100005E004785B1C0C70401CDBB2491C93423F
:102A2000F7D310BD10B5FDF75EFE0122322110462E
:102A3000FEF784FDFDF75CFF7D2109010020FEF714
:102A400007F910BD10B50223052200211846FEF734
:102A5000D9FA00231A4619461846FEF7B1FAFEF7CE
:102A6000EDFB7D21C9001F480068FDF7D2FC04463C
:102A7000601E1D49884200D90CE0601E1B49486158
:102A80000321081FFFF74EF800201849886107202E
:102A9000086100BFFFF750FF002015490860084695
:102AA0000068400040088903401811490860084642
:102AB000006801214904884340180D490860084610
:102AC000006801210904884340180949086018205A
:102AD0004860002008630846006B40084000401C26
:102AE000086310BD400A0020FFFFFF0000E000E087
:102AF0000000024005490868400840000449034AB4
:102B00004032D16101490860704700000010084060
:102B10009A65FA05064908680A0401469143084681
:102B20000449034A4032D1610149086070470000FE
:102B3000001008409A65FA05084908680121084311
:102B40000749064A4032D1610449086000BF034981
:102B500009680905C90F0029F9D07047001008401D
:102B60009A65FA0508490868090408430749064AAE
:102B70004032D1610449086000BF03490968490037
:102B8000C90F0029F9D07047001008409A65FA056E
:102B90000A4908680121090308430949074A4032E4
:102BA000D1610849D1610549086000BF034909683E
:102BB0004904C90F0029F9D07047000000100840EF
:102BC0009A65FA050599556630B5194800220270D4
:102BD00042701146174C04228460827001234360C6
:102BE0000373054669732B466C61AA730C33022587
:102BF0005D600576054669762B462C62AA76183309
:102C000003255D602423C554C31859709C609A70D5
:102C10005A603023C2543030417084608270052283
:102C20004260204614388160C170017130BD0000DF
:102C3000580F0020B40A0020014601208007102907
:102C400000DA12E0202901DA08480EE0302901DA22
:102C500007480AE0402901DA064806E0502901DA6F
:102C6000054802E0602900DA04487047001000407F
:102C70000020004000300040004000400050004074
:102C800070B505460020312403460FE0EA5C504051
:102C90000022060602D54000604000E04000521CC1
:102CA000D2B2C0B2082AF4D35B1CDBB28B42EDD3A4
:102CB00070BD10B572B60020C043FEF717FF0021AB
:102CC000481EFEF72FFF0020C043FEF71BFF012028
:102CD000FEF70CFF03210120FEF724FF0120FEF781
:102CE00011FF0220FEF702FF03210220FEF71AFF68
:102CF0000220FEF707FF0C20FEF7F8FE03210C2050
:102D0000FEF710FF0C20FEF7FDFE1020FEF7EEFE92
:102D100002211020FEF706FF1020FEF7F3FE11201F
:102D2000FEF7E4FE02211120FEF7FCFE1120FEF763
:102D3000E9FE62B610BD000010B50A490A480068F5
:102D4000FDF767FB0949086008468068022188434F
:102D5000801C064988600846806840084000401C86
:102D6000886010BD881300003C0A002000C00840A5
:102D70000146002904D0012904D0072906D103E027
:102D8000002005E0022003E0062001E0042000BF4F
:102D900000BF704710B502480068804710BD0000B2
:102DA000A009002010B502480068804710BD00004F
:102DB0009809002010B502480068804710BD000047
:102DC0009C0900207047000010B502460024080747
:102DD000000F002876D1081181380300FEF778FE35
:102DE000190E18222C36409696964A9696545E688E
:102DF000739696967D96969687919600464800889B
:102E000000121070521C444800781070521C7FE071
:102E10004248008800121070521C40480078107020
:102E2000521C75E03E48008800121070521C3C484D
:102E300000781070521C6BE03A4800880012107045
:102E4000521C384800781070521C61E036480088E7
:102E500000121070521C344800781070521C57E059
:102E60003248008800121070521C304800781070F0
:102E7000521C4DE02E48008800121070521C2C4845
:102E800000781070521C43E02A480088001210702D
:102E9000521C284800781070521C39E026480088DF
:102EA00000121070521C244800781070521C2FE041
:102EB0002248008800121070521C204800781070C0
:102EC000521C25E022E01E48008800121070521C9F
:102ED0001B4800781070521C1AE01A480088001233
:102EE0001070521C174800781070521C10E01648E1
:102EF000008800121070521C134800781070521C89
:102F000006E0124800781070521C01E0012010BD4C
:102F100000BF0020FBE70000DA080020DE080020E8
:102F2000CA080020CC080020CE080020D0080020CD
:102F3000D6080020DC080020E0080020D20800208D
:102F4000D4080020D808002098080020A4080020F9
:102F500010B5024600240807000F00287ED1081192
:102F6000C1380300FEF7B4FD170D23394F657D937B
:102F7000A97A7A7A7A7A7ABFC9DFFBF9F8F7F6F597
:102F80007A00BB480068000E1070521CB8480068F8
:102F90000002000E1070521CB54800880004000E9C
:102FA0001070521CB24800781070521C5DE1B1489C
:102FB0000068000E1070521CAE4800680002000E3F
:102FC0001070521CAB4800880004000E1070521C98
:102FD000A84800781070521C47E1A7480068000E0E
:102FE0001070521CA44800680002000E1070521CA1
:102FF000A14800880004000E1070521C9E48007802
:103000001070521C31E19D480068000E1070521C77
:103010009A4800680002000E1070521C9748008801
:103020000004000E1070521C944800781070521C5E
:103030001BE193480068000E1070521C9048006815
:103040000002000E1070521C8D4800880004000E13
:103050001070521C8A480078107000E003E1521C86
:1030600003E188480068000E1070521C8548006813
:103070000002000E1070521C824800880004000EEE
:103080001070521C7F4800781070521CEDE07E4892
:103090000068000E1070521C7B4800680002000E91
:1030A0001070521C784800880004000E1070521CEA
:1030B000754800781070521CD7E074480068000E04
:1030C0001070521C714800680002000E1070521CF3
:1030D0006E4800880004000E1070521C6B48007887
:1030E0001070521CC1E06A48008800121070521C17
:1030F000674800781070521CB7E066480068000E00
:103100001070521C634800680002000E1070521CC0
:10311000604800880004000E1070521C5D48007862
:103120001070521CA1E05C480068000E1070521C28
:10313000594800680002000E1070521C5648008862
:103140000004000E1070521C534800781070521C7E
:103150008BE072E05BE044E02DE016E0FFE74F48D3
:103160000068000E1070521C4C4800680002000EEF
:103170001070521C494800880004000E1070521C48
:10318000464800781070521C6FE045480068000EF9
:103190001070521C424800680002000E1070521C51
:1031A0003F4800880004000E1070521C3C48007814
:1031B0001070521C59E03B480068000E1070521C01
:1031C000384800680002000E1070521C3548008814
:1031D0000004000E1070521C324800781070521C0F
:1031E00043E031480068000E1070521C2E48006801
:1031F0000002000E1070521C2B4800880004000EC4
:103200001070521C284800781070521C2DE027487E
:103210000068000E1070521C244800680002000E66
:103220001070521C214800880004000E1070521CBF
:103230001E4800781070521C17E01D480068000EF0
:103240001070521C1A4800680002000E1070521CC8
:10325000174800880004000E1070521C14480078B3
:103260001070521C01E0012010BD00BF0020FBE7E0
:10327000480800204C080020500800205408002076
:10328000680800206C0800207008002074080020E6
:1032900012080020580800205C0800206008002068
:1032A00064080020780800207C08002080080020A6
:1032B0008408002030B502460023534C081BA1426D
:1032C00065D012DC514C081BA14240D008DC5048AC
:1032D000081800281BD0102824D0202877D12BE0F4
:1032E00010283FD02028F9D147E057252D01441B55
:1032F000A8426ED004DC302853D040287ED15BE059
:10330000A1200001201A6FD0202877D171E0414818
:1033100000880004000E1070521C3E4800781070A7
:10332000521C6DE03C48008800121070521C3A4854
:1033300000781070521C63E0384800880004000ECA
:103340001070521C354800781070521C58E03448F8
:1033500000880004000E1070521C31480078107074
:10336000521C4DE02F4800880004000E1070521CC3
:103370002C4800781070521C42E02B480088001244
:103380001070521C284800781070521C38E02748F2
:10339000008800121070521C244800781070521CD3
:1033A0002EE0234800880004000E1070521C2048B4
:1033B00000781070521C23E01E4800880004000EA4
:1033C0001070521C1B4800781070521C18E015E059
:1033D000FFE71948008800121070521C1648007848
:1033E0001070521C0CE0FFE7144800781070521C5B
:1033F00006E0134800781070521C01E0012030BD37
:1034000000BF0020FBE700009019000040190000F9
:10341000F0E6FFFFE2080020E4080020E6080020B4
:10342000E8080020EA080020EC08002090080020AE
:10343000EE080020F0080020F4080020F208002028
:10344000F308002030B50246002335242402081B6F
:10345000A1426ED017DC914C081BA1425ED00BDC60
:103460008F48081A30D0FF380138002836D0FF388E
:103470000138002874D13BE010285BD0202864D0AC
:103480003028F7D16EE003256D02441BA84268D0B6
:103490000DDCFF38FF380238002879D0FF380138BA
:1034A000002876D0FF3801380028E3D1A5E0E01FDE
:1034B000F93800286ED0FF38013800286BD0FF386B
:1034C00001380028D6D1D9E0764800880012107063
:1034D000521C744800781070521CDCE0724800885E
:1034E00000121070521C704800781070521CD2E00C
:1034F0006E480068000E1070521C6C480068000294
:10350000000E1070521C694800880004000E1070F4
:10351000521C664800781070521CBCE06448008859
:103520000004000E1070521C614800781070521C8C
:10353000B1E031E05F4800880004000E1070521CBA
:103540005C4800781070521CA5E05B4800880004BD
:10355000000E1070521C584800781070521C9AE0EF
:1035600097E060E055480068000E1070521C534808
:1035700000680002000E1070521C504800880004C1
:10358000000E1070521C4D4800781070521C82E0E2
:1035900007E01CE05DE067E0494800781070521CCD
:1035A00079E048480068000E1070521C45480068D9
:1035B0000002000E1070521C424800880004000EE9
:1035C0001070521C3F4800781070521C63E03E4857
:1035D0000068000E1070521C3B4800680002000E8C
:1035E0001070521C384800880004000E1070521CE5
:1035F000354800781070521C4DE034480068000EC9
:103600001070521C314800680002000E1070521CED
:103610002E4800880004000E1070521C2B480078C1
:103620001070521C37E02A480068000E1070521CBF
:10363000274800680002000E1070521C24480088C1
:103640000004000E1070521C214800781070521CAB
:1036500021E0204800880004000E1070521C1D4814
:1036600000781070521C16E01B4800880012107081
:10367000521C194800781070521C0CE01748008842
:103680000004000E1070521C144800781070521C78
:1036900001E0012030BD00BF0020FBE71034000036
:1036A000003100000C0800200E0800200409002052
:1036B000F8080020FA080020FC080020000900207B
:1036C0001008002014080020880800208C08002022
:1036D000200800204008002044080020180800208E
:1036E00010B50246002349242402081BA1427DD0C4
:1036F00013DC6E4C081BA1424CD007DC6C48081A46
:103700001CD0FF380138002871D12DE0102857D087
:103710002F242401001BF7D16AE0FF38013800286C
:1037200078D0FF380138002872D0FF3801380028DF
:103730006FD0FF3801380028E6D1ADE05D48006861
:10374000000E1070521C5B4800680002000E1070E2
:10375000521C584800880004000E1070521C554836
:1037600000781070521C9EE053480068000E1070E4
:10377000521C514800680002000E1070521C4E4846
:1037800000880004000E1070521C4B480078107026
:10379000521C88E049480068000E1070521C4748CF
:1037A00000680002000E1070521C4448008800049B
:1037B000000E1070521C414800781070521C72E0CC
:1037C0003F480068000E1070521C3D48006800021F
:1037D000000E1070521C3A4800880004000E107051
:1037E000521C374800781070521C5CE005E058E02D
:1037F000344800781070521C55E03348008800129D
:103800001070521C304800781070521C4BE001E0E0
:1038100016E02BE02D480068000E1070521C2B485B
:1038200000680002000E1070521C28480088000436
:10383000000E1070521C254800781070521C32E0A7
:1038400023480068000E1070521C214800680002D6
:10385000000E1070521C1E4800880004000E1070EC
:10386000521C1B4800781070521C1CE0194800685C
:10387000000E1070521C174800680002000E1070F5
:10388000521C144800880004000E1070521C11488D
:1038900000781070521C06E00F4800781070521C1F
:1038A00001E0012010BD00BF0020FBE71044000034
:1038B0000040000028080020B40800209C080020D8
:1038C000A008002024080020340800203008002030
:1038D000380800203C080020A508002030B502462A
:1038E00000239B4C081BA1427ED01ADC994C081B7C
:1038F000A1427AD00CDC9848081800282ED0102855
:1039000042D0402856D0FF38F13800286ED156E01A
:10391000A9242401001B7DD0102869D04028F5D1AE
:103920008EE01325AD01441BA8426FD00ADC30287D
:103930006DD0D0286CD025246401001B69D01028DC
:10394000E4D1B6E0202C6FD04D200001201A6CD0BD
:10395000FF38FF3802380028D8D1DEE07F48006801
:10396000000E1070521C7D4800680002000E10709E
:10397000521C7A4800880004000E1070521C7748D0
:1039800000781070521CE0E075480068000E10705E
:10399000521C734800680002000E1070521C7048E0
:1039A00000880004000E1070521C6D4800781070E2
:1039B000521CCAE06B4800781070521CC5E06A487F
:1039C0000068000E1070521C674800680002000E6C
:1039D0001070521C644800880004000E1070521CC5
:1039E00061480078107004E02FE004E0ABE011E0E3
:1039F0001CE0521CA9E05D4800880004000E107015
:103A0000521C5A4800781070521C9EE05BE026E081
:103A10003BE044E05648008800121070521C5448A5
:103A200000781070521C90E057E060E05148008828
:103A300000121070521C4F4800781070521C84E025
:103A40004D4800781070521C7FE04C4800880012EE
:103A50001070521C494800781070521C75E048489C
:103A60000068000E1070521C454800680002000EED
:103A70001070521C424800880004000E1070521C46
:103A80003F4800781070521C5FE03E4800880012EA
:103A90001070521C3B4800781070521C55E03A4898
:103AA000008800121070521C374800781070521CA9
:103AB0004BE03648008800121070521C33480078E2
:103AC0001070521C41E03248008800121070521CE5
:103AD0002F4800781070521C37E02E4800880012E2
:103AE0001070521C2B4800781070521C2DE02A4890
:103AF0000068000E1070521C274800680002000E7B
:103B00001070521C244800880004000E1070521CD3
:103B1000214800781070521C17E020480068000E01
:103B20001070521C1D4800680002000E1070521CDC
:103B30001A4800880004000E1070521C17480078C4
:103B40001070521C01E0012030BD00BF0020FBE7D7
:103B50007063000080580000F0AFFFFFA80800204D
:103B6000AC080020B8080020B0080020420800205F
:103B7000BA080020BC080020C0080020BE080020B1
:103B8000940800209A080020C2080020C4080020E1
:103B9000C6080020C80800201C08002030080020AB
:103BA00010B5024600240807000F002872D1081142
:103BB00081380300FDF78CFF190E1A26323E4AB3F6
:103BC000B3B356B3B3626F7B87B3B3B393B3B3B33B
:103BD0009FABB3001378521C1802534B1880107817
:103BE000521C1B881843504B18809AE01378521CC3
:103BF00018024E4B18801078521C1B8818434B4BF0
:103C000018808EE01378521C1802494B18801078E7
:103C1000521C1B881843464B188082E01378521CB4
:103C20001802444B18801078521C1B881843414BD3
:103C3000188076E01378521C18023F4B18801078D9
:103C4000521C1B8818433C4B18806AE01378521CA6
:103C500018023A4B18801078521C1B881843374BB7
:103C600018805EE01378521C1802354B18801078CB
:103C7000521C1B881843324B188052E01378521C98
:103C80001802304B18801078521C1B8818432D4B9B
:103C9000188046E043E01378521C18022A4B188023
:103CA0001078521C1B881843274B188039E0137872
:103CB000521C1802254B18801078521C1B88184380
:103CC000224B18802DE01378521C1802204B1880CC
:103CD0001078521C1B8818431D4B188021E0137864
:103CE000521C18021B4B18801078521C1B8818435A
:103CF000184B188015E01378521C1802164B1880C8
:103D00001078521C1B881843134B188009E0107858
:103D1000521C124B1B781843104B187001E0012005
:103D200010BD00BF0020FBE7DA080020DE080020FD
:103D3000CA080020CC080020CE080020D0080020AF
:103D4000D6080020DC080020E0080020D20800206F
:103D5000D4080020D808002098080020A4080020DB
:103D600010B5024600240807000F00287ED1081174
:103D7000C1380300FDF7ACFE170D2C4B6A8BAAC9A6
:103D8000F27A7A7A7A7A7AF0EFEEEDECEBEAE9E819
:103D90007A001378521C1806FE4B1B681843FD4B23
:103DA00018601378521C1804FA4B1B681843F94B1F
:103DB00018601378521C1802F64B1B681843F54B19
:103DC00018601078521C1B681843F24B18600DE203
:103DD0001378521C1806F04B1B681843EE4B186002
:103DE0001378521C1804EC4B1B681843EA4B1860FC
:103DF0001378521C1802E84B1B681843E64B1860F6
:103E00001078521C1B681843E34B1860EEE11378DE
:103E1000521C1806E14B1B681843E04B18601378DE
:103E2000521C1804DD4B1B681843DC4B18601378D8
:103E3000521C1802D94B1B681843D84B18601078D5
:103E4000521C1B681843D54B1860CFE11378521CE5
:103E50001806D34B1B681843D14B18601378521CBB
:103E60001804CF4B1B681843CD4B00E0BCE1186031
:103E70001378521C1802CA4B1B681843C84B1860B1
:103E80001078521C1B681843C54B1860AEE11378BC
:103E9000521C1806C34B1B681843C24B186013789A
:103EA000521C1804BF4B1B681843BE4B1860137894
:103EB000521C1802BB4B1B681843BA4B1860107891
:103EC000521C1B681843B74B18608FE11378521CC3
:103ED0001806B54B1B681843B34B18601378521C77
:103EE0001804B14B1B681843AF4B18601378521C71
:103EF0001802AD4B1B681843AB4B18601078521C6E
:103F00001B681843A84B186070E11378521C180600
:103F1000A64B1B681843A54B18601378521C180455
:103F2000A24B1B681843A14B18601378521C18024F
:103F30009E4B1B6818439D4B18601078521C1B68E1
:103F400018439A4B186051E10CE1ECE0CCE0ACE096
:103F50008CE06CE04CE02CE01FE0FFE71378521C93
:103F60001806934B1B681843914B18601378521C2A
:103F700018048F4B1B6818438D4B18601378521C24
:103F800018028B4B1B681843894B18601078521C21
:103F90001B681843864B186028E11378521C1802DE
:103FA000844B18801078521C1B881843814B188052
:103FB0001CE11378521C18067F4B1B6818437E4B7C
:103FC00018601378521C18047B4B1B6818437A4BFB
:103FD00018601378521C1802774B1B681843764BF5
:103FE00018601078521C1B681843734B1860FDE072
:103FF0001378521C1806714B1B6818436F4B1860DE
:104000001378521C18046D4B1B6818436B4B1860D7
:104010001378521C1802694B1B681843674B1860D1
:104020001078521C1B681843644B1860DEE013784C
:10403000521C1806624B1B681843614B18601378BA
:10404000521C18045E4B1B6818435D4B18601378B4
:10405000521C18025A4B1B681843594B18601078B1
:10406000521C1B681843564B1860BFE01378521C53
:104070001806544B1B681843524B18601378521C97
:104080001804504B1B6818434E4B18601378521C91
:1040900018024C4B1B6818434A4B18601078521C8E
:1040A0001B681843474B1860A0E01378521C180691
:1040B000454B1B681843444B18601378521C180476
:1040C000414B1B681843404B18601378521C180270
:1040D0003D4B1B6818433C4B18601078521C1B6802
:1040E0001843394B186081E01378521C1806374B7F
:1040F0001B681843354B18601378521C1804334B57
:104100001B681843314B18601378521C18022F4B50
:104110001B6818432D4B18601078521C1B681843FD
:104120002A4B186062E01378521C1806284B1B6853
:104130001843274B18601378521C1804244B1B6833
:104140001843234B18601378521C1802204B1B682D
:1041500018431F4B18601078521C1B6818431C4BE7
:10416000186043E01378521C18061A4B1B6818435A
:10417000184B18601378521C1804164B1B68184310
:10418000144B18601378521C1802124B1B6818430A
:10419000104B21E0480800204C0800205008002067
:1041A00054080020680800206C08002070080020D7
:1041B0007408002012080020580800205C08002025
:1041C0006008002064080020780800207C08002097
:1041D000800800208408002018601078521C1B689A
:1041E0001843044B186001E0012010BD00BF0020FF
:1041F000FBE700008408002030B502460023704C25
:10420000081BA14274D012DC6E4C081BA1424FD097
:1042100008DC6D48081800281BD0102829D0202859
:1042200067D135E0102853D02028F9D162E0572516
:104230002D01441BA8427BD004DC30287BD04028D1
:10424000EED188E0A1200001201A73D02028E7D108
:10425000A8E01478521C20025C4C2488204300B251
:104260005A4C20801078521C0025655F284320801E
:10427000A2E01478521C2002554C24882043544C50
:1042800020801078521C24882043514C208093E0D9
:104290001478521C20024F4C2488204300B24D4C0D
:1042A00020801078521C0025655F2843208083E021
:1042B0001478521C2002484C2488204300B2464CFB
:1042C00020801078521C0025655F2843208073E011
:1042D0001478521C2002414C2488204300B23F4CE9
:1042E00020801078521C0025655F2843208063E001
:1042F0000FE05FE01478521C2002394C24882043E0
:10430000374C20801078521C24882043344C208065
:1043100052E01478521C2002324C24882043314C45
:1043200020801078521C248820432E4C208043E0AB
:1043300021E000E02EE01478521C20022A4C248850
:10434000204300B2284C20801078521C0025655F65
:104350002843208030E01478521C2002234C24880B
:10436000204300B2214C20801078521C0025655F4C
:104370002843208020E01478521C20021C4C248802
:1043800020431B4C20801078521C24882043184C5A
:10439000208011E01078521C164C24782043154CD4
:1043A000207009E01078521C134C24782043124CE2
:1043B000207001E0012030BD00BF0020FBE70000BD
:1043C0009019000040190000F0E6FFFFE20800200D
:1043D000E4080020E6080020E8080020EA080020A1
:1043E000EC08002090080020EE080020F0080020D3
:1043F000F4080020F2080020F308002030B502463F
:10440000002335242402081BA14276D017DCC44CBB
:10441000081BA14274D00BDCC248081A30D0FF3808
:10442000013800283BD0FF380138002867D145E02B
:10443000102879D0202874D03028F7D197E00325B0
:104440006D02441BA8426DD00DDCFF38FF380238E6
:10445000002868D0FF380138002875D0FF380138AF
:104460000028E3D1E9E0E01FF93800286DD0FF38DB
:10447000013800286AD0FF3801380028D6D139E148
:104480001478521C2002A84C24882043A64C20807B
:104490001078521C24882043A34C20803CE11478DF
:1044A000521C2002A14C24882043A04C208010786C
:1044B000521C248820439D4C20802DE11478521CEE
:1044C00020069B4C24682043994C20601478521C91
:1044D0002004974C24682043954C20601478521C8B
:1044E0002002934C24682043914C20601078521C89
:1044F000246820438E4C20600EE157E000E009E183
:104500001478521C20028B4C2488204300B2894C22
:1045100020801078521C0025655F28432080FBE036
:1045200002E014E0A8E04AE01478521C2002824C19
:104530002488204300B2804C20801078521C002533
:10454000655F28432080E7E058E0B4E0C3E01478DA
:10455000521C2002794C2488204300B2774C2080E2
:104560001078521C0025655F28432080D4E0147821
:10457000521C2006724C24682043714C2060147831
:10458000521C20046E4C246820436D4C206014782B
:10459000521C20026A4C24682043694C2060107829
:1045A000521C24682043664C2060B5E01078521CF1
:1045B000644C2478204340B2624C2070ACE0147804
:1045C000521C2006604C246820435F4C2060147805
:1045D000521C20045C4C246820435B4C20601478FF
:1045E000521C2002584C24682043574C20601078FD
:1045F000521C24682043544C20608DE01478521CD7
:104600002006524C24682043504C20601478521CE1
:1046100020044E4C246820434C4C20601478521CDB
:1046200020024A4C24682043484C20601078521CD9
:1046300024682043454C20606EE01478521C20060C
:10464000434C24682043424C20601478521C2004C0
:104650003F4C246820433E4C20601478521C2002BA
:104660003B4C246820433A4C20601078521C24684C
:104670002043374C20604FE01478521C2006354C04
:1046800024682043334C20601478521C2004314CA1
:10469000246820432F4C20601478521C20022D4C9B
:1046A000246820432B4C20601078521C246820433F
:1046B000284C206030E01478521C2002264C2488BC
:1046C000204300B2244C20801078521C0025655FE6
:1046D0002843208020E01478521C20021F4C24889C
:1046E00020431E4C20801078521C248820431B4CF1
:1046F000208011E01478521C2002194C2488204399
:1047000000B2174C20801078521C0025655F2843AA
:10471000208001E0012030BD00BF0020FBE7000049
:1047200010340000003100000C0800200E080020AA
:1047300004090020F8080020FA080020FC080020E6
:10474000000900201008002014080020880800201C
:104750008C08002020080020400800204408002089
:104760001808002010B50246002349242402081B23
:10477000A1427DD013DC954C081BA1425ED007DC22
:104780009348081A1CD0FF380138002871D136E050
:10479000102877D02F242401001BF7D194E0FF3894
:1047A0000138002867D0FF38013800287ED0FF3854
:1047B000013800287BD0FF3801380028E6D1F7E027
:1047C0001478521C2006834C24682043814C2060BE
:1047D0001478521C20047F4C246820437D4C2060B8
:1047E0001478521C20027B4C24682043794C2060B2
:1047F0001078521C24682043764C2060E3E0147843
:10480000521C2006744C24682043734C206014789A
:10481000521C2004704C246820436F4C2060147894
:10482000521C20026C4C246820436B4C2060107892
:10483000521C24682043684C2060C4E01478521C49
:104840002006664C24682043644C20601478521C77
:104850002004624C24682043604C20601478521C71
:1048600020025E4C246820435C4C2060107803E0FA
:1048700032E0A6E006E03EE0521C24682043574C9C
:104880002060A0E01478521C2006554C2468204378
:10489000534C20601478521C2004514C246820434F
:1048A0004F4C20601478521C200201E042E060E08E
:1048B0004B4C246820434A4C20601078521C2468DA
:1048C0002043474C20607EE01078521C454C2478F1
:1048D0002043444C207076E01478521C2002424C55
:1048E00024882043404C20801078521C2488204388
:1048F0003D4C208067E01478521C20063B4C246815
:1049000020433A4C20601478521C2004374C246811
:104910002043364C20601478521C2002334C24680B
:104920002043324C20601078521C246820432F4CC6
:10493000206048E01478521C20062D4C2468204347
:104940002B4C20601478521C2004294C24682043EE
:10495000274C20601478521C2002254C24682043E8
:10496000234C20601078521C24682043204C206087
:1049700029E01478521C20061E4C246820431D4C4C
:1049800020601478521C20041A4C24682043194CCF
:1049900020601478521C2002164C24682043154CC9
:1049A00020601078521C24682043124C20600AE0DA
:1049B0001078521C104C2478204340B20E4C2070CA
:1049C00001E0012010BD00BF0020FBE71044000003
:1049D0000040000028080020B40800209C080020A7
:1049E000A0080020240800203408002030080020FF
:1049F000380800203C080020A508002030B50246F9
:104A00000023C84C081BA14276D01ADCC64C081BF8
:104A1000A14272D00CDCC548081800282ED01028FE
:104A20004BD040286CD0FF38F138002867D16FE0B8
:104A3000A9242401001B7DD010287CD04028F5D16A
:104A4000BCE01325AD01441BA84275D00ADC302818
:104A500073D0D02872D025246401001B6FD0102899
:104A6000E4D1EFE0202C6BD04D200001201A68D05B
:104A7000FF38FF3802380028D8D12FE11478521CB3
:104A80002006AB4C24682043A94C20601478521CAB
:104A90002004A74C24682043A54C20601478521CA5
:104AA0002002A34C24682043A14C20601078521CA3
:104AB000246820439E4C206031E11478521C20066B
:104AC0009C4C246820439B4C20601478521C20048A
:104AD000984C24682043974C20601478521C200284
:104AE000944C24682043934C20601078521C246816
:104AF0002043904C206012E168E031E000E00CE1DE
:104B00001078521C8C4C247820438B4C207006E18A
:104B10001478521C2006894C24682043874C20605E
:104B20001478521C2004854C24682043834C206058
:104B3000147807E024E032E093E056E064E072E0AD
:104B40009EE0ACE0521C20027C4C246820437B4C4D
:104B500020601078521C24682043784C2060DEE0EE
:104B60001478521C2002764C2488204300B2744CE6
:104B700020801078521C0025655F28432080CEE0FD
:104B80001478521C20026F4C248820436D4C2080E6
:104B90001078521C248820436A4C2080BFE014788F
:104BA000521C2002684C24882043674C20801078D7
:104BB000521C24882043644C2080B0E01078521CA2
:104BC000624C24782043614C2070A8E01478521C79
:104BD00020025F4C248820435D4C20801078521CBA
:104BE000248820435A4C208099E01478521C2002DB
:104BF000584C24682043574C20601078521C24687D
:104C00002043544C20608AE01478521C2002524CFD
:104C100024882043504C20801078521C2488204344
:104C20004D4C20807BE01478521C20024B4C248891
:104C300020434A4C20801078521C24882043474C43
:104C400020806CE01478521C2002454C24882043BC
:104C5000434C20801078521C24882043404C2080F4
:104C60005DE01478521C20023E4C248820433D4CC9
:104C700020801078521C248820433A4C20804EE03B
:104C80001478521C2002384C24882043364C208053
:104C90001078521C24882043334C20803FE0147845
:104CA000521C2006314C24682043304C206014787C
:104CB000521C20042D4C246820432C4C2060147876
:104CC000521C2002294C24682043284C2060107874
:104CD000521C24682043254C206020E01478521C8C
:104CE0002006234C24682043214C20601478521C59
:104CF00020041F4C246820431D4C20601478521C53
:104D000020021B4C24682043194C20601078521C50
:104D100024682043164C206001E0012030BD00BF14
:104D20000020FBE77063000080580000F0AFFFFF39
:104D3000A8080020AC080020B8080020B008002017
:104D400042080020BA080020BC080020C00800204B
:104D5000BE080020940800209A080020C208002005
:104D6000C4080020C6080020C80800201C08002035
:104D70003008002070B502460B46FF25FF2408E0EE
:104D80001178521C61400748405C68400446064860
:104D9000455C18465E1EB3B20028F1D128022043BC
:104DA00070BD0000F4510000F4520000002807D04C
:104DB0000F4A926B10239A4310320D4B9A6305E011
:104DC0000B4A926B10239A43094B9A63002907D030
:104DD000074A926B20239A432032054B9A6305E0E1
:104DE000034A926B20239A43014B9A637047000059
:104DF00000200940002004490860084680684008F7
:104E0000400088607047000000F00A40002004491C
:104E100008600846806840084000401C8860704771
:104E200000F00A4001460020054A1278002A06D008
:104E3000044A12780A700022014B1A700120704750
:104E4000360A0020350A002000200249087001209F
:104E500070470000360A002001460120024A107007
:104E60000248017001207047360A0020350A0020F0
:104E70000146024800680870012070470020094080
:104E8000F8B504460D4616461F4629462046FBF750
:104E90004DFC0120F8BD0000014605480068000AED
:104EA0000002CAB21043024A10600120704700009D
:104EB0000020094010B5044632206043014601221B
:104EC0000020FCF73BFB012010BD000038B500249A
:104ED00023480078002800D104E0ED2221A12BA076
:104EE000FBF718FA6846FFF7C3FF2F480078002841
:104EF00006D001280AD002281AD003282CD102E0BB
:104F0000FFF784FF28E0FFF781FF25E00020274915
:104F1000088069460A7825490888411C234B198076
:104F200023490A54022020490870FFF76FFF13E05D
:104F30001E480088FF2809DC69460A781B49088852
:104F4000411C1A4B19801A490A5402E003201649E1
:104F50000870FFF75BFF00BF00BF204638BD0000B0
:104F6000700900204D4F444255535C467265656D93
:104F70006F646275735C6D6F646275735C72747577
:104F80005C6D627274752E630000000065536E6480
:104F90005374617465203D3D2053544154455F5422
:104FA000585F49444C450000710900207A090020EF
:104FB000880B002010B5002417480078002804D082
:104FC000022807D003280BD109E00020FFF744FF97
:104FD000044619E00120FFF73FFF044614E013E008
:104FE0000D480078002807D00B480078022803D02D
:104FF00009480078032800D105E0FF22633207A1A9
:105000001048FBF787F900BF00BFFFF7F3FE012050
:1050100001490870204610BD710900204D4F4442DF
:1050200055535C467265656D6F646275735C6D6F38
:10503000646275735C7274755C6D627274752E63F4
:1050400000000000F453000010B500241C48007854
:10505000012800D105E0FF2229321AA123A0FBF785
:1050600059F929480078002802D0012825D104E008
:1050700000210120FFF79AFE1FE024480088002845
:105080000FD0234909680878FFF706FF2048006819
:10509000401C1F4908601D480088401E1B490880AD
:1050A0000AE00320FFF7D8FE044600210120FFF7A5
:1050B0007DFE00201449087000BF00BF204610BDCF
:1050C000710900204D4F444255535C467265656D31
:1050D0006F646275735C6D6F646275735C72747516
:1050E0005C6D627274752E63000000006552637619
:1050F0005374617465203D3D2053544154455F52C3
:10510000585F49444C450000700900207809002090
:1051100074090020F0B503460C461546E208D0009D
:10512000201A87B20120A840401E86B2995C501C0C
:10513000185C0002014308463841014608463040E9
:105140000146C8B2F0BD0000FFB583B005460E466B
:10515000069800900598082800DC04E0382215A184
:1051600020A0FBF7D7F8F408E000301A81B20191D3
:1051700001990098884080B20090012005998840EC
:10518000401E80B20290E000311A0298884080B23E
:1051900002902F5D601C285C00020743384602998C
:1051A00088430099084307462F553912601C29543B
:1051B00007B0F0BD4D4F444255535C467265656D76
:1051C0006F646275735C6D6F646275735C66756E37
:1051D0006374696F6E735C6D627574696C732E6352
:1051E0000000000075634E42697473203C3D203816
:1051F0000000000000C1814001C0804101C0804129
:1052000000C1814001C0804100C1814000C1814096
:1052100001C0804101C0804100C1814000C1814086
:1052200001C0804100C1814001C0804101C0804176
:1052300000C1814001C0804100C1814000C1814066
:1052400001C0804100C1814001C0804101C0804156
:1052500000C1814000C1814001C0804101C0804146
:1052600000C1814001C0804100C1814000C1814036
:1052700001C0804101C0804100C1814000C1814026
:1052800001C0804100C1814001C0804101C0804116
:1052900000C1814000C1814001C0804101C0804106
:1052A00000C1814001C0804100C1814000C18140F6
:1052B00001C0804100C1814001C0804101C08041E6
:1052C00000C1814001C0804100C1814000C18140D6
:1052D00001C0804101C0804100C1814000C18140C6
:1052E00001C0804100C1814001C0804101C08041B6
:1052F00000C1814000C0C101C30302C2C60607C786
:1053000005C5C404CC0C0DCD0FCFCE0E0ACACB0BF5
:10531000C90908C8D81819D91BDBDA1A1EDEDF1F25
:10532000DD1D1CDC14D4D515D71716D6D21213D315
:1053300011D1D010F03031F133F3F23236F6F737C5
:10534000F53534F43CFCFD3DFF3F3EFEFA3A3BFBB5
:1053500039F9F83828E8E929EB2B2AEAEE2E2FEF65
:105360002DEDEC2CE42425E527E7E62622E2E323D5
:10537000E12120E0A06061A163A3A26266A6A76705
:10538000A56564A46CACAD6DAF6F6EAEAA6A6BAB75
:1053900069A9A86878B8B979BB7B7ABABE7E7FBFA5
:1053A0007DBDBC7CB47475B577B7B67672B2B37395
:1053B000B17170B050909151935352929656579745
:1053C000559594549C5C5D9D5F9F9E5E5A9A9B5B35
:1053D00099595898884849894B8B8A4A4E8E8F4FE5
:1053E0008D4D4C8C44848545874746868242438355
:1053F0004181804028206552637653746174652032
:105400003D3D2053544154455F52585F494E4954E5
:105410002029207C7C202820655263765374617497
:1054200065203D3D2053544154455F52585F5243DF
:10543000562029207C7C2028206552637653746195
:105440007465203D3D2053544154455F52585F459B
:1054500052524F52202900008854000000080020BA
:10546000DC020000880600008854000000000020D4
:10547000000400000401000038550000DC0A002090
:10548000E80D000004010000411AFF0101FF212086
:105490001010011002100310041005100610071060
:1054A0000A1D0101811309401A1004300D20094022
:1054B0000102030405060708090625E803F4016450
:1054C0000229023211234D1F320423E11D32031A37
:1054D000570819AD1123BF2032061AE52032171BD9
:1054E0006B1EC22910221B32051A7518320F1A259D
:1054F000282972033F9F1C131BB7FCC0E1E4045131
:1055000014400A401A44041A48041A4C041A50045D
:105510001A54041A58040009105C0A40E803F40104
:10552000641DF00A4010041A2004211309401A10C7
:08553000041A2004013B0000F5
:04000005000000C136
:00000001FF
