:020000040000FA
:100000000004002081010000450C0000250C0000C8
:1000100000000000000000000000000000000000E0
:10002000000000000000000000000000470E00007B
:100030000000000000000000410E00002D12000032
:10004000951600003D16000099160000430E0000B2
:10005000450E0000D5070000B90A0000BB0A0000E9
:10006000BD0A0000BF0A0000C10A0000CB0A000060
:10007000D1080000D7070000490E00007D2C0000C9
:10008000E91400001515000039150000DF06000016
:10009000E1060000E3060000E5060000470C000052
:1000A0004B0C00004D0C00004F0C0000490C0000F0
:1000B000C30A0000C50A0000C70A0000C90A000000
:1000C00000F002F800F030F80CA030C8083824180E
:1000D0002D18A246671EAB4654465D46AC4201D180
:1000E00000F022F87E460F3E0FCCB6460126334282
:1000F00000D0FB1AA246AB463343184768320000D3
:10010000983200000023002400250026103A01D375
:1001100078C1FBD8520700D330C100D50B607047BF
:100120001FB51FBD10B510BD00F04FFA1146FFF707
:10013000F7FF02F0F5FA00F067FA03B4FFF7F2FFF9
:1001400003BC00F031FA000070B505460C461646B7
:1001500002E00FCC0FC5103E102EFAD2082E02D3AB
:1001600003CC03C5083E042E07D301CC01C5361FBE
:1001700003E021782970641C6D1C761EF9D270BDD5
:100180001448006801461448884213D11348006897
:10019000400F401E124901430A46124812490160AD
:1001A000124802601249EFF30880401880F3088873
:1001B000104800471048804710480047FEE7FEE718
:1001C000FEE7FEE7FEE7FEE70D480E490E4A0F4B3D
:1001D0007047000000280240018C1258148008402B
:1001E000FFFFFF5A5C1008409A65FA05141008409A
:1001F00000040000ED27000065130000C1000000AE
:100200000000002000040020000100200001002068
:10021000FEB5054610460C46184373D0AE468C46D4
:100220000020AD1A01469C4167D366460027012491
:100230003D46B61A9D4102D313463A4621246546EF
:1002400076462F04360C3E432D0CB61A9D4104D33E
:10025000150C1B042B4312041034654676462F06FA
:10026000360A3E432D0AB61A9D4104D3150E1B02D1
:100270002B4312020834654676462F0736093E4363
:100280002D09B61A9D4104D3150F1B012B431201F2
:10029000241D65467646AF07B6083E43AD08B61A3C
:1002A0009D4104D3950F9B002B439200A41C6546EF
:1002B0007646EF0776083E436D08B61A9D411AD37D
:1002C00092185B41641C16E0001876466546494169
:1002D000B71A9D410191009009D36046B11A984127
:1002E0008E468446009801990025401C6941DD072F
:1002F00052082A435B08641EE6D57246634603B083
:10030000F0BDFFE700200146C046C0462A4623460E
:10031000F5E700000EB5044615460E4612A000F0A3
:1003200032F9204600F02FF915A000F02CF93046E4
:1003300000F029F914A000F026F96C460020E072C4
:100340000A20A0720A3407E00A21284600F06BF860
:1003500030310546641E2170002DF5DC204600F08A
:1003600012F900F006F900002A2A2A206173736549
:100370007274696F6E206661696C65643A20000072
:100380002C2066696C6520002C206C696E6520004D
:10039000F8B5042A2CD3830712D00B78491C0370BC
:1003A000401C521E83070BD00B78491C0370401C65
:1003B000521E830704D00B78491C0370401C521E48
:1003C0008B079B0F05D0C91ADF002023DE1B08C94D
:1003D0000AE0FFF7B9FEF8BD1D4608C9FD401C46FE
:1003E000B4402C4310C0121F042AF5D2F308C91AD6
:1003F000521EF0D40B78491C0370401C521EEAD4E4
:100400000B78491C0370401C012AE4D40978017060
:10041000F8BD002203098B422CD3030A8B4211D36F
:1004200000239C464EE003460B433CD40022430885
:100430008B4231D303098B421CD3030A8B4201D375
:1004400094463FE0C3098B4201D3CB01C01A52410D
:1004500083098B4201D38B01C01A524143098B425D
:1004600001D34B01C01A524103098B4201D30B0146
:10047000C01A5241C3088B4201D3CB00C01A52416B
:1004800083088B4201D38B00C01A524143088B4230
:1004900001D34B00C01A5241411A00D201465241C9
:1004A000104670475DE0CA0F00D04942031000D3E8
:1004B0004042534000229C4603098B422DD3030A3D
:1004C0008B4212D3FC22890112BA030A8B420CD34D
:1004D000890192118B4208D3890192118B4204D376
:1004E00089013AD0921100E08909C3098B4201D3F6
:1004F000CB01C01A524183098B4201D38B01C01A30
:10050000524143098B4201D34B01C01A52410309A6
:100510008B4201D30B01C01A5241C3088B4201D355
:10052000CB00C01A524183088B4201D38B00C01A02
:100530005241D9D243088B4201D34B00C01A5241D9
:10054000411A00D20146634652415B10104601D366
:100550004042002B00D54942704763465B1000D3F0
:10056000404201B50020C046C04602BD70477047FA
:10057000704710B5002000F01DF8FFF7D3FD0120F3
:1005800000F012F810BD10B5044602E0641C00F043
:1005900004F820780028F9D110BD08B56946087024
:1005A0000320ABBE08BD000001491820ABBEFEE72A
:1005B0002600020010B500F035F800F02DF810BD4F
:1005C000004870476417002070477546FFF7F8FF32
:1005D000AE46050069465346C008C000854618B0BF
:1005E00020B5FFF7F1FD60BC00274908B64600269C
:1005F000C0C5C0C5C0C5C0C5C0C5C0C5C0C5C0C5D3
:10060000403D49008D46704710B50446C046C0467F
:100610002046FFF792FD10BD10B5002801D0FFF76E
:10062000C3FF10BD10B5002102A000F013F8012097
:1006300010BD0000534947414252543A2041626E76
:100640006F726D616C207465726D696E6174696F33
:100650006E00000070B505460C460A2000E06D1CD7
:10066000FFF79BFF002D06D028780028F7D102E085
:10067000641CFFF792FF002C02D020780028F7D1ED
:100680000A20FFF78AFF70BD70B58C180578401CF2
:100690006B075B0F01D10378401C2A1106D1027849
:1006A000401C03E00678401C0E70491C5B1EF9D10B
:1006B0002B0705D40023521E0DD40B70491CFAE7FA
:1006C0000378401CCB1A921C03E01D780D70491C66
:1006D0005B1C521EF9D5A142D8D3002070BD7047D3
:1006E00070477047704710B50321162000F0EEF9EF
:1006F0000321172000F0EAF90221172000F036FA52
:10070000242000F01FFA232000F01CFA262000F01D
:1007100019FA1F2000F016FA242000F063FA2320B3
:1007200000F060FA262000F05DFA10BD3EB50446E8
:100730000D460820002201901346009202900322E9
:100740002946204600F0CAFFA0001F490858806BC8
:10075000102188431030A1001B4A51588863A00023
:1007600011460858806B0121890288434018A10076
:10077000515888631548A10051584864A00011469B
:100780000858006BFF21013188434018A1005158DF
:100790000863A00011460858006B012149028843F4
:1007A0004018A10051580863A00011460858006B7A
:1007B00040084000401CA10051580863082004492B
:1007C0000874202088743EBD6C080020FFFF0000E4
:1007D000080A00207047704700B50E480C49C160F8
:1007E000FF313D31016100218171094902209839B1
:1007F000087007480321183841700649FD22891CFA
:100800000878400840001040087002F039F900BD37
:10081000580D0020CC090020F8B52A482A4E8468DB
:10082000022020703078671CC01C60708D20A07082
:100830007078E070241D32782146706802F042F82A
:100840003078C01CC1B2384602F076F902463078E2
:1008500000238446716825461846552610E00F5C33
:10086000552F03D0022F01D0032F04D1EE545B1C6F
:100870000F5C9BB25537EF545B1C401C9BB280B29F
:100880006045ECD3E918032A16D0022A14D0552A61
:1008900012D00A70491C032008700A48491C80685D
:1008A000091A8AB2094900F073F80749FD2216397E
:1008B000087810400870F8BD0E7055324A70891CD7
:1008C000E9E70000440D0020E40900200000094091
:1008D00010B50648C068C007C00F002804D001202A
:1008E0000249C86000F0B2FA10BD0000C0600840C4
:1008F000002014E000214201234B99504201D218FC
:1009000051604201D21811614201D2185161420175
:10091000D21891604201D2189161411CC8B20628D8
:10092000E8DB1949194A51600021184AC032516167
:1009300011611649096A0122D20591438918134AA7
:1009400011621146096A1F2212029143012292028A
:1009500089180E4A116200210C4AC032D1600B493D
:10096000096A0122120791438918084A1162114647
:10097000096A49084900491C116211460968490879
:100980004900491C11607047000C002000600840BD
:1009900030B501239B029A4239DDD31A404C2380A3
:1009A00001239B023F4C23803F4B186059609B689A
:1009B000DB08DB005B1C3C4CA36023469B683B4C84
:1009C0002340E4431B19384CA36023469B680F2443
:1009D000A403A3430524A4031B19334CA36023469B
:1009E0009B680324A406A3432F4CA36023469B6863
:1009F00003242407A3432C4CA36023469B689B003D
:100A00009B080324A4071B19274CA36039E000238B
:100A1000234C2380234C2380234B186059609B6810
:100A2000DB08DB005B1C204CA36023469B681F4C4B
:100A30002340541E24011D4DED432C4023431A4CEA
:100A4000A36023469B680F24A403A3430524A403A7
:100A50001B19154CA36023469B680324A406A343DB
:100A6000114CA36023469B6803242407A3430E4C28
:100A7000A36023469B689B009B08AC061B190A4C8D
:100A8000A3600B4B1B6A5B085B005B1C084C23627A
:100A9000084B9B680224A3439B1C064CA36030BDFB
:100AA000680800206A080020000C00200FC0FFFF2B
:100AB0000060084040200940704770477047704709
:100AC000704770477047704770477047FEB50446DF
:100AD0000E46012080070190204602F009F801909F
:100AE000019D20110001201A8000451901F059F8DC
:100AF000009072B600BF0E4880681121084000289F
:100B0000F9D10C490C4801600C480B490860286871
:100B1000C708FF0038463043286009480860044889
:100B2000806803498860009801F044F8FEBD000029
:100B3000002002409A65FA0500080840CCCCFA056E
:100B400001005FA010B503460124A407184601F078
:100B5000CFFF0446A0200059191109015A1A01219A
:100B600091400843A021085110BD0000FEB5044685
:100B70000E46012080070190204601F0B9FF019048
:100B8000019D20110001201A8000451901F009F88B
:100B9000009072B600BF0E488068112108400028FE
:100BA000F9D10C490C4801600C480B490860C02180
:100BB0002F688F43B0013843286009480649086010
:100BC0000348806802498860009800F0F3FFFEBD8A
:100BD000002002409A65FA0500080840CCCCFA05CE
:100BE00001005FA010B503460124A407184601F0D8
:100BF0007FFF044618110001191A01208840942132
:100C0000085110BD10B503460124A407184601F091
:100C10006FFF044618110001191A0120884098211D
:100C2000085110BD00BFFEE710B501F067FE01F0EE
:100C300055FE00F05BFEFFF7CFFD01F0D9FF01F09C
:100C400094FF10BD704770477047704770477047FA
:100C500070B504460D46230000F03AFF06040D1659
:100C60001F28313A01210020FFF730FF01210846FB
:100C7000FFF72CFF2DE001210220FFF727FF0121C4
:100C80000320FFF723FF24E001210420FFF71EFFCC
:100C900001210520FFF71AFF1BE001210620FFF7C5
:100CA00015FF01210720FFF711FF12E001210820A5
:100CB000FFF70CFF01210920FFF708FF09E00121E0
:100CC0000A20FFF703FF01210B20FFF7FFFE00E0E2
:100CD00000BF00BF00F062FF064672B600BF4E487C
:100CE0008068112108400028F9D14C484C4908601F
:100CF0004C4808604C480069000A00024A490861F3
:100D00004A484749086044488068434988603046FB
:100D100000F04AFF4648058001460888C10F0918BF
:100D20004910434A51806420114688800846008853
:100D3000A100404A515848613F48A10051580860FD
:100D40000520A1005158C8619020A1005158C862E7
:100D50000B20A1005158C86335488088A100515824
:100D6000486433488088A100515808640020A100DD
:100D70005158886700F012FF064672B600BF264839
:100D80008068112108400028F9D1244824490860CE
:100D9000244808608815A100264A515888640A2012
:100DA000A100515808650420A100515848651F480A
:100DB0001B4908601848806817498860304600F071
:100DC000F3FE1E48A1001B4A51584866FF2002301E
:100DD000A1005158886600F0E1FE064672B600BFD9
:100DE0000D488068112108400028F9D10B480C49B2
:100DF00008600C4808600C480069FF2108430A4954
:100E000008610A480649086003488068024988600A
:100E1000304600F0C9FE70BD002002409A65FA0518
:100E200000080840CCCCFA050000084001005FA093
:100E300084080020800900200AA00000090A0000A0
:100E400070477047704770477047000010B5554AAB
:100E50001288002A09D1544A926802239A43524BBD
:100E60009A600022514B1A7010BD514A10685168A7
:100E70004C4A128801239B029A4243DD4D4A128854
:100E800082184B4B1A601A4651609268D208D20001
:100E9000521C9A601A469268474B1A40DB43D2189C
:100EA000434B9A601A4692680F239B039A4305238B
:100EB0009B03D2183E4B9A601A46926803239B0606
:100EC0009A433B4B9A601A46926803231B079A4346
:100ED000374B9A601A4692689200920803239B0748
:100EE000D218334B9A602F4A128801239B02D21AE0
:100EF0002C4B1A802F4A128801239B02D2182D4BAB
:100F00001A803EE02B4A12888218294B1A601A4632
:100F100051609268D208D200521C9A601A469268B8
:100F2000254B1A401F4B1B885B1E1B01224CE443C0
:100F300023401A431E4B9A601A4692680F239B0364
:100F40009A4305239B03D218194B9A601A4692685C
:100F500003239B069A43164B9A601A469268032312
:100F60001B079A43124B9A601A46926892009208A5
:100F7000A306D2180E4B9A6000220A4B1A800D4B22
:100F80001A800E4A126A52085200521C0B4B1A6207
:100F9000054A926802239A43921C034B9A6000BF51
:100FA00062E700006808002040200940D0090020C6
:100FB000000C00206A0800200FC0FFFF00600840FE
:100FC00070B5044600250F2C05DC0F2903DC0F2A21
:100FD00001DCFF2B01D9012070BD1002C0182604CE
:100FE00080190E0685190548054EF0610448403801
:100FF000C5600120F0610020EEE700009A65FA0567
:1010000040100840F0B505460C4616461F46032D15
:1010100005DC012C03DC0F2E01DC032F01DD012098
:10102000F0BD002D06D0012D20D0022D72D0032D51
:101030001BD1D3E001F008FD00BF74488068C006F2
:10104000C00F0028F9D0714883689B089B0000BF3F
:101050006F486E494031C8616C48836000BF6B487F
:101060008068C006C00F0028F9D0CBE001F09EFCDC
:1010700066480368402003433021184688430346EE
:10108000644800686449884201D20120C8E7614889
:1010900000686249884219D35E4800684900884266
:1010A00002D21020034311E05A4800685C4988428C
:1010B00002D22020034309E056480068594988427B
:1010C00002D23020034301E00120A9E750484F49F4
:1010D0004031C8614D48036001F08AFC00BF4B48B5
:1010E0008068C006C00F0028F9D0484883689B0874
:1010F0009B0001200343464844494031C8614348AE
:10110000836000BF41488068C006C00F0028F9D046
:1011100078E0FFE7002C02D101F096FC37E001F007
:1011200045FC3A4803684020034330211846884371
:101130000346384800683849884201D201206FE7E9
:10114000344800683549884219D33248006849005C
:10115000884202D21020034311E02E480068304933
:10116000884202D22020034309E02A4800682D4922
:10117000884202D23020034301E0012050E7244896
:1011800022494031C8612148036001F031FC01F07F
:101190001DFC1E484368244803403001B902401832
:1011A000001903431A4819494031C8611748436080
:1011B00001F034FC00BF15488068C006C00F00284D
:1011C000F9D0124883689B089B0002200343104813
:1011D0000E494031C8610D48836013E000BF0B48E1
:1011E0008068C006C00F0028F9D0084883689B08B3
:1011F0009B0003200343064804494031C86103486B
:10120000836000BF00BF00200AE700000010084014
:101210009A65FA056409002040420F0000093D006C
:101220000024F4000048E8010EF3FFFF02480068C4
:10123000401C01490860704798080020F8B5002458
:101240000027002500263D4880688407A40F002C55
:1012500006D0012C08D0022C0AD0032C31D12BE06F
:101260003748384908602CE037483649086028E09C
:1012700032484068C707FF0F304840680006050F36
:101280002E4840680005860F002F0AD1691CB20065
:1012900018322B4B5A431046FFF7BBF82949086018
:1012A00009E0691CB2001832274B5A431046FFF779
:1012B000B0F82449086004E07D200002214908605C
:1012C00000BF00BF1D48C068C4B2611C1D48006853
:1012D000FFF79FF81D490860084600681C498842CE
:1012E00003D902201B49C86002E001201949C860E7
:1012F0001248C0680003040F611C14480068FFF71F
:1013000088F8154908600D48C0680001040F611C89
:101310000E480068FFF77DF8104908600748C0686C
:101320000005040F611C07480068FFF772F80C49BC
:1013300008600648006803490860F8BD00100840CE
:10134000C0E1E40068090020001BB7006C09002020
:10135000007E5603008008407009002074090020B8
:101360007809002025482649C86125484038006B87
:101370000121490388434018214940390863214825
:10138000214908601D481E49C8610020C0431C490E
:101390004039486119481A49C8610020C0431849BA
:1013A0004039886115481649C8610020C043144976
:1013B0004039C86100BFEFF31081084672B600BF24
:1013C00012498968112211400029F9D10B49104AAC
:1013D00011601049116029210F4A51600F490C4AD0
:1013E00011600A498968094A916000BF80F310883A
:1013F00000BF02200A49C860704700009A65FA05DC
:1014000040100840C0E1E4006809002000200240CC
:1014100000080840CCCCFA050000084001005FA09D
:101420000080084010B504460020A06005482060F8
:10143000062060600020E0602082204600F004F872
:1014400010BD0000880A00200168002206E0022387
:101450008B7000230B80091D531CDAB24368934242
:10146000F5D8704770B5044625681E49E0680968DC
:10147000884200D170BD1B480068E060A068401C35
:10148000A060208A40084000401C208200260EE018
:10149000A878002808D12888002803D02888401E72
:1014A000288001E00120A8702D1D701CC6B2606864
:1014B000B042EDD80A21A068FEF7ABFF00290ED19B
:1014C000208A02218843801C2082A068642806D3D9
:1014D0000020A060208A0C218843001D208200BFCC
:1014E000C8E700009808002010B509480068806827
:1014F0008007C00F002809D001F0A8FB044800684D
:1015000080680221884302490968886010BD000094
:10151000B4090020002006490868086005494968A8
:10152000896802229143034A526891607047000023
:1015300000C00840B409002070470000F7B584B02F
:10154000044600250027042C02DD012007B0F0BD71
:101550000698012801DD0120F8E720E034490598CC
:10156000096800F09DFA334A002301910090FEF7CC
:101570004FFE039102900120B840024600230190E3
:101580000298FEF745FE0022451E91410E46501E70
:101590000021401BB14100D303E0781CC7B2112FDA
:1015A000DCDB00BF112F01DB0120CFE70020A10011
:1015B000214A51580860A000114608584560A00013
:1015C0000858C06840094001F906C90E0843A10047
:1015D0005158C860A000114608588068042188430B
:1015E00006998900042211400843A100124A51586B
:1015F0008860A00011460858806808218843A1002F
:1016000051588860A000114608588068022188431C
:10161000A10051588860A000114608588068400811
:101620004000401CA1005158886000208EE7000057
:101630007809002040420F00B409002013480068D8
:10164000C006C00F002806D010484068102188430B
:1016500010300E4948600D4800688006C00F002811
:1016600006D00A4840682021884320300749486056
:10167000064800684005C00F002806D0044803490A
:1016800048600020014940394860704740200940C7
:10169000FFFF00007047000010B50F480068C0064B
:1016A000C00F002808D001F0D9FA0B48406810217B
:1016B0008843103008494860074800688006C00F1A
:1016C000002808D001F0D2FA03484068202188435E
:1016D00020300149486010BD40200940F8B504465B
:1016E0000D4616461F460020A100724A5158486018
:1016F000290171480068FEF78CFEA1006D4A51581F
:10170000486229016C480068FEF783FEC801290180
:10171000401869010090FEF77CFEA100654A51580F
:101720008862002F09D1A00011460858C06A022122
:101730008843A1005158C8622DE0012F15D1A000A7
:101740005C490858C06A04218843001DA100594A19
:101750005158C862A00011460858C06A0221884347
:10176000801CA1005158C86215E0022F13D1A000BF
:1017700050490858C06A04218843A1004D4A515875
:10178000C862A00011460858C06A02218843801C24
:10179000A1005158C862002E0AD1A000454908583E
:1017A000C06A60218843A100424A5158C86226E0BD
:1017B000012E0BD1A0003F490858C06A6021884320
:1017C0002030A1003B4A5158C86218E0022E0BD1CC
:1017D000A00038490858C06A602188434030A10001
:1017E000344A5158C8620AE0A00032490858C06A19
:1017F000602188436030A1002E4A5158C862069883
:1018000000280AD1A0002B490858C06A0821884343
:10181000A100284A5158C8620DE0069801280AD153
:10182000A00024490858C06A082188430830A10054
:10183000204A5158C862079808280DD108980828EE
:101840000AD1A0001B490858C06A10218843A10092
:10185000184A5158C86226E0A00016490858C06AC4
:10186000102188431030A100124A5158C862A000CC
:1018700011460858406BC008C00008994907490F35
:101880000843A10051584863A00011460858406B16
:10189000382188430799C900382211400843A10024
:1018A000044A515848630548A100024A5158486407
:1018B000F8BD0000C009002070090020FFFF0000F3
:1018C00070B50022084D1346D9004C190021665C02
:1018D0008654521C491CC9B2D2B20829F7D35B1CEA
:1018E000DBB2052BF0D370BD6C0F002070B519482A
:1018F0008AB0002404704470174D04224560827041
:101900000123C370037206467472F560B272F372FB
:101910000221017474747561B274F3740321017649
:101920007476F561B276F37620214254203044700B
:1019300045608270C370103D6C712C71AC7000F00A
:101940000DF86C616846AC61FFF7BAFFEC700AB045
:1019500070BD00006C0F0020FC090020F8B50021CC
:10196000494A4A4D11710846C20052195378002B5A
:1019700008D09278444B511801221C7982402243AE
:10198000C9B21A71401CC0B20528EDD3002978D025
:10199000FF20F530FEF73DFD3C4C00222834274661
:1019A00084461146643F3948CB001E1870780028E1
:1019B00010D00C204843A518C3195D6000255D8038
:1019C0006546AD003D5200201872B0784543A81816
:1019D00082B209E00C230E46A0185E43F3190025DD
:1019E00058605D80BD531D72491CC9B20529DAD308
:1019F0002649274828310A46803206C080320260D4
:101A00000A22027200234372224A42600122827239
:101A1000214C224821606060B520C000A081E38194
:101A200023816381A382E3826383184D2383002192
:101A3000CA0052195678002E10D09278022A04D08B
:101A4000042A05D0012A06D008E0228B921C04E06B
:101A5000228B121D01E0228B521C2283491CC9B229
:101A60000529E5D3218B00290CD0FEF7D2FC0146D5
:101A700005486422C078101A48431146FEF7D3FC8B
:101A8000A082F8BDA382F8BDEC0900206C0F0020F5
:101A9000440D002019080000140F002094110020AC
:101AA000F8B582B28BB2040C0D0C104658430021DD
:101AB00026465E43370C36048019794116466E433C
:101AC000370C36048019794126466E438919F8BDD2
:101AD00030B47446641E2578641CAB4200D21D46A7
:101AE000635D5B00E31830BC18470000002805DB8D
:101AF000C206D20E01219140014A116070470000D8
:101B000080E200E0002809DB00BF00BFC206D20E61
:101B100001219140024A116000BF00BF70470000E0
:101B200000E100E010B5002819DB1A4A03231B026C
:101B3000D21883089B00D2588307DC0EFF23A340F2
:101B40009A438B071B0E8407E40EA3401A43114BE4
:101B5000032424021B198408A4001A5118E00E4A19
:101B600003071B0F083B9B089B00D2588307DC0E22
:101B7000FF23A3409A438B071B0E8407E40EA34068
:101B80001A43054B0407240F083CA408A4001A516B
:101B900010BD000000E100E01CED00E0EFF310805C
:101BA0007047EFF31080704780F31088704780F320
:101BB0001088704780F310887047000010B500242B
:101BC00006480078012806D10548006880470020B3
:101BD0000249087000E00624204610BDAE0800202F
:101BE000B4080020F0B585B006460D4600200190EF
:101BF000288805284ED1707800020390B0780399A8
:101C0000084303900398401C80B20390F0780402CC
:101C100030790443012C3ADB7D200001844236DA1E
:101C2000374600202880012038707F1C2888401CFF
:101C300028806007400F002808D02046E117490F90
:101C40000918C910491CC9B2029106E02046E117E3
:101C5000490F09184905090E0291029838707F1C36
:101C60002888401C2880002322463846039900F02B
:101C700075FC00900098002804D0009800F0D4FF74
:101C8000019009E0298802980818288004E00320C0
:101C9000019001E003200190019805B0F0BDF0B57E
:101CA00085B006460D4600200190288805284DD1B4
:101CB000707800020390B07803990843039003986A
:101CC000401C80B20390F078040230790443012C68
:101CD00039DB7D200001844235DA37460020288038
:101CE000022038707F1C2888401C28806007400F25
:101CF000002808D02046E117490F0918C910491CCF
:101D0000C9B2029106E02046E117490F09184905BA
:101D1000090E0291029838707F1C2888401C288088
:101D200022463846039900F063FC00900098002892
:101D300004D0009800F078FF019009E0298802980B
:101D40000818288004E00320019001E0032001909E
:101D5000019805B0F0BDFEB505460C460020019087
:101D60002088052838D1687800020290A878029966
:101D7000084302900298401C80B20290E878060264
:101D80002E79012E25DB7D2E23DC2F46002020809E
:101D9000032038707F1C2088401C20807006000EB5
:101DA00038707F1C2088401C208000233246384633
:101DB000029900F04BFC00900098002804D0009895
:101DC00000F032FF019009E0208871004018208067
:101DD00004E00320019001E0032001900198FEBD82
:101DE000FEB505460C46002001902088052838D114
:101DF000687800020290A87802990843029002983D
:101E0000401C80B20290E878060228790643012E31
:101E100024DB7D2E22DA2F4600202080042038701B
:101E20007F1C2088401C20807006000E38707F1CAC
:101E30002088401C208032463846029900F04AFC37
:101E400000900098002804D0009800F0EDFE01906A
:101E500009E0208871004018208004E003200190F0
:101E600001E0032001900198FEBDF0B587B0044663
:101E70000D460020029028880A2863DB6078000263
:101E80000690A0780699084306900698401C80B2F8
:101E90000690E078060220790643607900020590FA
:101EA000A0790599084305900598401C80B20590DB
:101EB000E0790702207A0743607A0490012E3FDB25
:101EC0007D2E3DDC012F3BDB792F39DC7900049836
:101ED000814235D101233A4620460A30059900F067
:101EE000B5FB01900198002822D103942880172087
:101EF000039C2070039C601C03902888401C288051
:101F00007006010E039801700398401C0390288806
:101F1000401C2880002332460699039800F096FB67
:101F200001900198002803D128887100401828806A
:101F30000198002806D0019800F076FE029001E09A
:101F400003200290029807B0F0BD000070B505466E
:101F50000C46064802880649681CFEF719FA034831
:101F60000088401C2080002070BD0000A8080020D0
:101F7000B40B0020FEB504460F46002000903888C0
:101F800005282BD160780502A0780543681C85B22E
:101F9000207900281FD1E078FF2802D0E0780028BF
:101FA00019D1002069464871E078FF2802D101204C
:101FB000087102E000206946087101231A4629468B
:101FC00001A800F0CBFA0646002E09D0304600F0FA
:101FD0002BFE009004E00320009001E0032000901D
:101FE0000098FEBDF8B504460F46002000903888E2
:101FF000052813D160780502A0780543681C85B2D6
:1020000001231A462946E01C00F020FB0646002E5C
:1020100006D0304600F008FE009001E0032000905A
:102020000098F8BDF0B585B005460E460020019039
:10203000308805283EDD68780702A8780743781CB9
:1020400087B2E8780402287904436879039060072E
:10205000400F002808D02046E117490F0918C91081
:10206000491CC9B2029106E02046E117490F091840
:102070004905090E0291012C19DB7B2000018442E5
:1020800015DC03990298884211D101232246394672
:10209000A81D00F063FA00900098002804D0009872
:1020A00000F0C2FD019007E00520308004E003202D
:1020B000019001E003200190019805B0F0BDFEB54C
:1020C00004460E46002001903088062829DB6078FF
:1020D0000702A0780743781C87B2E07805022079D0
:1020E000054360790290012D18DB782D16DC680617
:1020F000010E0298814211D101232A463946A01DC2
:1021000000F0A4FA00900098002804D0009800F095
:102110008BFD019007E00520308004E00320019052
:1021200001E0032001900198FEBD0000F8B50546CE
:102130000C4616461F4600200090002C03D0012CB0
:1021400001DBF72C02DD0220009037E01C48047010
:10215000002D20D11B481C4908601C481C49086000
:102160001C481D4908601D481D49086000201D4984
:1021700008601D481D4908601D481E4908601E482A
:102180001E4908603A4631460D480078069B00F02B
:10219000DFF8009002E00220009000BF00BF00982E
:1021A00000280BD100F0D6FD002802D103200090BA
:1021B00004E0134805700120124908700098F8BD2A
:1021C000AC08002019250000B408002041250000BB
:1021D000B808002069240000B0080020AD230000EA
:1021E000BC080020C0080020D92D0000C408002031
:1021F000552F0000C8080020C12E0000CC08002088
:10220000AD080020AE08002038B50025454800780C
:10221000002801D0062038BD684600F089FD01285D
:102220007DD168460078002806D0012805D0022814
:102230001AD0032872D170E070E03B4A3B493C4819
:102240003C4B1B6898470546002D0CD13848007858
:1022500039490978884203D035480078002802D1EE
:10226000022000F07FFD59E03048006800783349D3
:102270000870012032490870002418E0E00031495C
:10228000085C002800D114E0E0002E49085C2B49CE
:10229000097888420AD1E0002A4940182249426858
:1022A0002248006890472649087002E0641C102C00
:1022B000E4DB00BF1E48007800282CD020480078BE
:1022C000002819D00020184908801C480078802177
:1022D000084315490A880988491C134B198013497A
:1022E0000968885416480278184601880088401CFE
:1022F00018800E480068425413480078012800D125
:1023000000BF09480288094801680B4800780F4B54
:102310001B689847054601E001E000BF00BF0020B0
:1023200079E70000AE0800205E090020580900206F
:102330005C090020BC080020AC0800205D090020DA
:1023400060090020D8080020AD080020B008002057
:10235000F8B50E4614461F46002000900120FFF7F6
:1023600026FC3B4608222146304600F00FFD01289E
:1023700002D00320009011E04B200002844201D9DA
:10238000232504E061000848FEF743F80546A8B29B
:1023900000F016FD012801D0032000900020FFF777
:1023A00006FC0098F8BD0000A07F1700F8B50446B1
:1023B0000D4616460020009000270120FFF7F7FB8E
:1023C00013480088FF2800DC04E09D2211A11BA017
:1023D000FDF7A0FF0E480088042813DB0C48018895
:1023E000204800F04DFC00280CD11E4800782070D9
:1023F00007480088C01E30801A48401C2860012011
:10240000009000E005270020FFF7D1FB3846F8BD1B
:10241000A60800204D4F444255535C467265656DD9
:102420006F646275735C6D6F646275735C727475F2
:102430005C6D627274752E630000000075735263E8
:1024400076427566666572506F73203C204D425F20
:102450005345525F5044555F53495A455F4D41586B
:1024600000000000B40A0020F8B505460E461746E5
:10247000002000900120FFF79AFB224800780128F5
:1024800038D1701E204908600120204908801E486C
:102490000068057008460088C01908800846018851
:1024A0001948006800F0ECFB0446184A1088421CEA
:1024B000164B1A80164A145421121A461088421CD0
:1024C0001A80134A11540120124908700E490968F4
:1024D000087800F067FC0C480068401C0A49086056
:1024E0000A480088401E094908800121002000F0A8
:1024F000E3FB01E0052000900020FFF758FB009867
:10250000F8BD00009D080020A0080020A4080020BD
:10251000B40A00209C08002010B50120FFF747FBFB
:102520000020064908700021012000F0C5FB00F0E2
:10253000F3FB0020FFF73BFB10BD00009D080020CF
:1025400010B50120FFF733FB0021084600F0B4FB73
:1025500000F0D6FB0020FFF72AFB10BDFFB583B0CB
:1025600005460E4600200290059804B230B20028BD
:1025700037DB05983018102833DC304607B2069850
:10258000002802D001282BD115E011E0082C01DD34
:10259000082000E02046C2B2B9B2144800F040FD65
:1025A00028706D1C2046083804B23846083007B23F
:1025B000002CEBDC14E010E02B786D1C082C01DD06
:1025C000082000E02046C2B2B8B201460190074898
:1025D00000F040FD2046083804B2002CECDC00BFBF
:1025E00001E001200290029807B0F0BD48080020E9
:1025F000FEB505460C4616460020019037B220B2C3
:1026000000281CDBA019102819DC204680B200909D
:1026100012E0082F01DD082000E03846C2B20A4867
:10262000009900F0FDFC28706D1C3846083807B290
:102630000098083080B20090002FEADC01E0012011
:1026400001900198FEBD000058080020F8B504462E
:102650000D460020009028B2D22833DBA818E628C7
:1026600030DC1A480088281A01B2002B02D0012B56
:1026700027D111E00DE04800154E305A00122070AD
:10268000641C4800305C2070641C481C01B2501E61
:1026900082B2002AEFDC14E010E02678641C3002DD
:1026A0004E000B4FB8532078641C4E00BE5B304385
:1026B0004E00B853481C01B2501E82B2002AECDC16
:1026C00000BF01E0012000900098F8BD46080020FE
:1026D0001E08002070B5034600200DB2002D18DB47
:1026E0008D18082D15DC0C4D2D884D1B2CB20DE0DE
:1026F00065000A4E755B2D121D705B1C6500755DD3
:102700001D705B1C651C2CB2551EAAB2002AEFDCA2
:1027100000E0012070BD00001C0800200C08002013
:1027200008B5FEF781FA00204B23DB0102220121CC
:102730000090FFF7FBFCFFF741FA2948FEF772FE15
:102740004CE02748FEF78EFE2548007CC007C00FEE
:10275000002805D02248008A40084000204908820D
:102760001F48007C8007C00F002807D0FFF74CFDF2
:102770001B48008A02218843194908821848007CB6
:102780000007800F012829D116480068401C154910
:10279000086008460068FF21F53148431249086087
:1027A00010480068012806D12320FEF72BFA2620C6
:1027B000FEF728FA0CE00B480068022808D1232015
:1027C000FEF710FA2620FEF70DFA002005490860F2
:1027D0000348008A0C21884301490882B1E70000C0
:1027E000600A002000080020080800200020704730
:1027F0002D484068FF210131884340182A4948602C
:1028000000BF294840684005C00F0028F9D026487D
:1028100040680121890288434018234948600846DE
:10282000006840084000401C0860084640680904F1
:10283000884340181C49486000BFEFF310810846E8
:1028400072B600BF19498968112211400029F9D1D7
:102850001749184A1160184911601849896B4908CD
:102860004900491C154A91631146896B0222914324
:10287000891C124A91631146896B102291431031D1
:102880000E4A91631146896B102291430B4A916362
:102890000B49084A116005498968044A916000BFE4
:1028A00080F3108800BF70470040024000200240C3
:1028B0009A65FA0500080840CCCCFA0500000840EB
:1028C00001005FA010B5002305E004785B1C0C70CC
:1028D000401CDBB2491C9342F7D310BD10B5FDF785
:1028E00002FF012232211046FEF728FEFEF700F813
:1028F0007D2109010020FEF7ABF910BD10B50223C0
:10290000052200211846FEF77DFB00231A461946D2
:102910001846FEF755FBFEF791FC7D21C9001F48C4
:102920000068FDF776FD0446601E1D49884200D907
:102930000CE0601E1B4948610321081FFFF7F2F8F5
:102940000020184988610720086100BFFFF750FF89
:1029500000201549086008460068400040088903C7
:10296000401811490860084600680121490488435D
:1029700040180D4908600846006801210904884391
:10298000401809490860182048600020086308467C
:10299000006B40084000401C086310BD6C0900201B
:1029A000FFFFFF0000E000E000000240054908686A
:1029B000400840000449034A4032D161014908609F
:1029C00070470000001008409A65FA05064908683B
:1029D0000A040146914308460449034A4032D16142
:1029E0000149086070470000001008409A65FA0528
:1029F00008490868012108430749064A4032D16165
:102A00000449086000BF034909680905C90F002986
:102A1000F9D07047001008409A65FA05084908681F
:102A2000090408430749064A4032D1610449086055
:102A300000BF034909684900C90F0029F9D0704750
:102A4000001008409A65FA050A490868012109033F
:102A500008430949074A4032D1610849D161054913
:102A6000086000BF034909684904C90F0029F9D06B
:102A700070470000001008409A65FA0505995566F0
:102A800030B519480022027042701146174C0422DA
:102A900084608270012343600373054669732B468B
:102AA0006C61AA730C3302255D6005760546697674
:102AB0002B462C62AA76183303255D602423C55467
:102AC000C31859709C609A705A603023C2543030D9
:102AD0004170846082700522426020461438816013
:102AE000C170017130BD0000580E0020E0090020C7
:102AF000014601208007102900DA12E0202901DABE
:102B000008480EE0302901DA07480AE0402901DAD6
:102B1000064806E0502901DA054802E0602900DA9B
:102B20000448704700100040002000400030004082
:102B3000004000400050004070B5054600203124A0
:102B400003460FE0EA5C50400022060602D5400032
:102B5000604000E04000521CD2B2C0B2082AF4D358
:102B60005B1CDBB28B42EDD370BD10B572B600209A
:102B7000C043FEF7BBFF0021481EFEF7D3FF002035
:102B8000C043FEF7BFFF0120FEF7B0FF0321012085
:102B9000FEF7C8FF0120FEF7B5FF0220FEF7A6FFF3
:102BA00003210220FEF7BEFF0220FEF7ABFF0C2040
:102BB000FEF79CFF03210C20FEF7B4FF0C20FEF76C
:102BC000A1FF1020FEF792FF02211020FEF7AAFFBE
:102BD0001020FEF797FF1120FEF788FF0221112039
:102BE000FEF7A0FF1120FEF78DFF62B610BD0000BA
:102BF00010B50A490A480068FDF70BFC094908604E
:102C00000846806802218843801C0649886008467F
:102C1000806840084000401C886010BD8813000098
:102C20006809002000C008400146002904D001299D
:102C300004D0072906D103E0002005E0022003E0CC
:102C4000062001E0042000BF00BF704710B5024815
:102C50000068804710BD0000CC08002010B5024875
:102C60000068804710BD0000C408002010B502486D
:102C70000068804710BD0000C808002070470000B1
:102C800070B502460B46FF25FF2408E01178521C60
:102C900061400748405C684004460648455C184669
:102CA0005E1EB3B20028F1D12802204370BD00009F
:102CB0000031000000320000002807D00F4A926B5C
:102CC00010239A4310320D4B9A6305E00B4A926B26
:102CD00010239A43094B9A63002907D0074A926B45
:102CE00020239A432032054B9A6305E0034A926BF6
:102CF00020239A43014B9A6370470000002009404B
:102D00000020044908600846806840084000886048
:102D10007047000000F00A4000200449086008469F
:102D2000806840084000401C8860704700F00A40FE
:102D300001460020054A1278002A06D0044A12787B
:102D40000A700022014B1A700120704762090020AE
:102D5000610900200020024908700120704700002E
:102D60006209002001460120024A107002480170E9
:102D700001207047620900206109002001460248D5
:102D8000006808700120704700200940F8B504462B
:102D90000D4616461F4629462046FDF7C7FC012072
:102DA000F8BD0000014605480068000A0002CAB2EA
:102DB0001043024A106001207047000000200940C3
:102DC00010B5044632206043014601220020FEF780
:102DD000B5FB012010BD000038B500242348007861
:102DE000002800D104E0ED2221A12BA0FDF792FAEA
:102DF0006846FFF7C3FF2F480078002806D0012857
:102E00000AD002281AD003282CD102E0FFF784FF51
:102E100028E0FFF781FF25E0002027490880694668
:102E20000A7825490888411C234B198023490A54F4
:102E3000022020490870FFF76FFF13E01E4800884A
:102E4000FF2809DC69460A781B490888411C1A4B8F
:102E500019801A490A5402E0032016490870FFF746
:102E60005BFF00BF00BF204638BD00009C0800206B
:102E70004D4F444255535C467265656D6F64627593
:102E8000735C6D6F646275735C7274755C6D627295
:102E900074752E630000000065536E645374617492
:102EA00065203D3D2053544154455F54585F49448B
:102EB0004C4500009D080020A6080020B40A002010
:102EC00010B5002417480078002804D0022807D045
:102ED00003280BD109E00020FFF744FF044619E066
:102EE0000120FFF73FFF044614E013E00D4800788F
:102EF000002807D00B480078022803D00948007842
:102F0000032800D105E0FF22633207A11048FDF736
:102F100001FA00BF00BFFFF7F3FE0120014908706E
:102F2000204610BD9D0800204D4F444255535C463D
:102F30007265656D6F646275735C6D6F64627573E5
:102F40005C7274755C6D627274752E6300000000B3
:102F50000033000010B500241C480078012800D17F
:102F600005E0FF2229321AA123A0FDF7D3F9294851
:102F70000078002802D0012825D104E0002101209A
:102F8000FFF79AFE1FE02448008800280FD023494D
:102F900009680878FFF706FF20480068401C1F49B1
:102FA00008601D480088401E1B4908800AE0032075
:102FB000FFF7D8FE044600210120FFF77DFE002028
:102FC0001449087000BF00BF204610BD9D080020B6
:102FD0004D4F444255535C467265656D6F64627532
:102FE000735C6D6F646275735C7274755C6D627234
:102FF00074752E630000000065526376537461742B
:1030000065203D3D2053544154455F52585F49442B
:103010004C4500009C080020A4080020A0080020C7
:10302000F0B503460C461546E208D000201A87B2D8
:103030000120A840401E86B2995C501C185C00021A
:103040000143084638410146084630400146C8B2AF
:10305000F0BD0000FFB583B005460E46069800900F
:103060000598082800DC04E0382215A120A0FDF70F
:1030700051F9F408E000301A81B2019101990098E9
:10308000884080B20090012005998840401E80B29F
:103090000290E000311A0298884080B202902F5DC1
:1030A000601C285C00020743384602998843009957
:1030B000084307462F553912601C295407B0F0BD4C
:1030C0004D4F444255535C467265656D6F64627541
:1030D000735C6D6F646275735C66756E6374696F43
:1030E0006E735C6D627574696C732E630000000012
:1030F00075634E42697473203C3D20380000000027
:1031000000C1814001C0804101C0804100C18140B7
:1031100001C0804100C1814000C1814001C08041A7
:1031200001C0804100C1814000C1814001C0804197
:1031300000C1814001C0804101C0804100C1814087
:1031400001C0804100C1814000C1814001C0804177
:1031500000C1814001C0804101C0804100C1814067
:1031600000C1814001C0804101C0804100C1814057
:1031700001C0804100C1814000C1814001C0804147
:1031800001C0804100C1814000C1814001C0804137
:1031900000C1814001C0804101C0804100C1814027
:1031A00000C1814001C0804101C0804100C1814017
:1031B00001C0804100C1814000C1814001C0804107
:1031C00000C1814001C0804101C0804100C18140F7
:1031D00001C0804100C1814000C1814001C08041E7
:1031E00001C0804100C1814000C1814001C08041D7
:1031F00000C1814001C0804101C0804100C18140C7
:1032000000C0C101C30302C2C60607C705C5C40486
:10321000CC0C0DCD0FCFCE0E0ACACB0BC90908C8F6
:10322000D81819D91BDBDA1A1EDEDF1FDD1D1CDCE6
:1032300014D4D515D71716D6D21213D311D1D01056
:10324000F03031F133F3F23236F6F737F53534F446
:103250003CFCFD3DFF3F3EFEFA3A3BFB39F9F838B6
:1032600028E8E929EB2B2AEAEE2E2FEF2DEDEC2CA6
:10327000E42425E527E7E62622E2E323E12120E016
:10328000A06061A163A3A26266A6A767A56564A406
:103290006CACAD6DAF6F6EAEAA6A6BAB69A9A86876
:1032A00078B8B979BB7B7ABABE7E7FBF7DBDBC7C66
:1032B000B47475B577B7B67672B2B373B17170B0D6
:1032C00050909151935352929656579755959454C6
:1032D0009C5C5D9D5F9F9E5E5A9A9B5B9959589836
:1032E000884849894B8B8A4A4E8E8F4F8D4D4C8C26
:1032F0004484854587474686824243834181804096
:103300002820655263765374617465203D3D2053D7
:10331000544154455F52585F494E49542029207CFE
:103320007C202820655263765374617465203D3D8E
:103330002053544154455F52585F52435620292030
:103340007C7C202820655263765374617465203D2F
:103350003D2053544154455F52585F4552524F529D
:10336000202900009433000000080020080200001B
:1033700088060000943300000000002000040000D4
:103380000401000058340000080A0020BC0D0000B1
:1033900004010000411AFF01512010100110021019
:1033A00003100410051006100710163931385801A3
:1033B000120168098FC2753F7B148E4008011012FC
:1033C000D20A1D0101611309401A1004300D2009B1
:1033D000400102030405060708090625E803F40175
:1033E000640229023211234D1F320423E11D3203EE
:1033F0001A570819D51123BF2032061AE5203217B3
:10340000236B1E29A123E51B32051A7518320F1AEA
:1034100025282972033F9F1C131BB7FCC0E1E4045D
:103420005114400A401A44041A48041A4C041A5011
:10343000041A54041A58040009105C0A40E803F402
:1034400001641DF00A4010041A2004211309401AD7
:0834500010041A2004013B00E6
:04000005000000C136
:00000001FF
